:020000040800F2
:10000000D080002099020008A1020008A302000885
:10001000A5020008A7020008A902000800000000CD
:10002000000000000000000000000000F5010008D2
:10003000AD0200080000000039020008650D00084C
:10004000B3020008B3020008B3020008B3020008BC
:10005000B3020008B3020008B3020008B3020008AC
:10006000B3020008B3020008B3020008B30200089C
:10007000B3020008B3020008B3020008B30200088C
:10008000B3020008B3020008B3020008B30200087C
:10009000B3020008B3020008B3020008B30200086C
:1000A000B3020008B3020008B3020008B30200085C
:1000B000B3020008B3020008B3020008B30200084C
:1000C000B3020008B3020008B3020008B30200083C
:1000D000B3020008B3020008B3020008B30200082C
:1000E000B3020008B3020008B302000800000000D9
:1000F0000000000000000000000000000000000000
:100100000000000000000000B3020008B302000875
:10011000B3020008B3020008B3020008B3020008EB
:10012000B3020008B3020008B3020008B3020008DB
:10013000B3020008B3020008B3020008B3020008CB
:10014000B3020008B3020008B3020008B3020008BB
:1001500000F002F800F03FF80AA090E8000C82449A
:100160008344AAF10107DA4501D100F034F8AFF277
:10017000090EBAE80F0013F0010F18BFFB1A43F085
:1001800001031847BC2B0000DC2B0000103A24BFF1
:1001900078C878C1FAD8520724BF30C830C144BFEC
:1001A00004680C607047000000230024002500262E
:1001B000103A28BF78C1FBD8520728BF30C148BFCA
:1001C0000B607047642900F0C380002070471FB5A2
:1001D0001FBD10B510BD00F0BFFA1146FFF7F7FFC5
:1001E00000F0F6FE00F0DDFA03B4FFF7F2FF03BC07
:1001F00000F0E4FA204B19680868B0E8F00F80F3CB
:100200000988BFF36F8F4FF0000080F311884EF024
:100210000D0E70470000000006480068006880F37B
:10022000088862B661B6BFF34F8FBFF36F8F00DFF0
:1002300000BF00BF08ED00E0EFF30980BFF36F8F50
:100240000D4B1A6820E9F00F106008B54FF0500010
:1002500080F3118801F08CFD4FF0000080F31188CD
:10026000BDE8084019680868B0E8F00F80F3098815
:10027000BFF36F8F704700BF00000020EFF31180C5
:100280004FF0500181F31188704780F31188704757
:10029000EFF3058070470000094880470948004790
:1002A000FEE7FEE7FEE7FEE7FEE7FEE7FEE7FEE726
:1002B000FEE7FEE704480549054A064B7047000083
:1002C000850E000851010008D07A0020D08000205F
:1002D000D07C0020D07C00200FB41CB5074B06AAB0
:1002E0007B4469460090059800F0A3F90020694618
:1002F00000F0B2F91CBC5DF814FB000075030000AF
:1003000070B5044685690068C10601D5302600E055
:100310002026C00707D070BDD4E9012130469047A0
:10032000206A401C20626D1EF6D570BD70B5044673
:1003300085690078C00707D170BDD4E9012120206C
:100340009047206A401C20626D1EF6D570BD0000EB
:100350002DE9F0410646002410687529314616A59E
:1003600010D0AFF30080002802DA404213A507E066
:1003700031688A0701D512A502E0490704D511A505
:10038000012401E0AFF3008000210A2206F12407D6
:1003900009E0B0FBF2FCB0FBF2F302FB1C003030D2
:1003A00078541846491C0028F3D123462A46304683
:1003B000BDE8F04100F0DFB8000000002D000000B3
:1003C0002B000000200000002DE9F0474FF0000A4C
:1003D00089460446C0F820A02046E16888470028E6
:1003E00076D0252806D0D4E901219047206A401C08
:1003F0002062F1E7E168204600258847C4F81CA088
:1004000006460027C4F818A02A2E09D0304600F06E
:10041000D7FD38B304EB8708303EC8F8186019E000
:1004200059F8041B204604EB87029161E168884774
:10043000012F064618D1E069002820DA25F02005B2
:100440001DE0D8F8180000EB800006EB40003038C3
:10045000C8F818002046E1688847064600F0B0FD5D
:100460000028EED1012F0AD02E2E08D12046E168B7
:1004700088477F1C0646022F45F02005C4DBA06993
:10048000002803DA404245F00105A061E80701D0E9
:1004900025F01005B6B1A6F14100192802D8203682
:1004A00045F400654A463146204625604D46FFF733
:1004B00089FE58B1012806D0ED1D25F0070000F196
:1004C000080989E704E005F1040985E730468AE771
:1004D000206ABDE8F087032A40F2308010F0030C58
:1004E00000F0158011F8013BBCF1020F624498BF87
:1004F00011F801CB00F8013B38BF11F8013BA2F124
:10050000040298BF00F801CB38BF00F8013B11F09E
:10051000030300F0A680083AC0F0088051F8043BBD
:10052000083A51F804CBA0E80810F5E7121D5CBFAB
:1005300051F8043B40F8043BAFF30080D20724BFDE
:1005400011F8013B11F801CB48BF11F8012B24BF72
:1005500000F8013B00F801CB48BF00F8012B7047C1
:1005600002F0FF0343EA032242EA024200F0ADB880
:100570007047704770472DE9F0470D4699469246FF
:10058000044600F124080168880604D5E06921F0DA
:100590001001216000E00120A84201DD471B00E0BE
:1005A0000027A1697A1902EB0900081AA0612078D6
:1005B000C00602D42046FFF7A3FE002608E0D4E9D7
:1005C00001211AF806009047206A401C761C206220
:1005D0004E45F4DB2078C0060AD52046FFF790FE92
:1005E00006E0D4E9012130209047206A401C2062B7
:1005F000381EA7F10107F4DC07E0D4E9012118F85F
:1006000005009047206A401C2062281EA5F10105C4
:10061000F3DC2046FFF78AFE2078000602D5022090
:10062000BDE8F0870120FBE701694A1C02610878F8
:10063000704700B58FB0CDE9013100210591054922
:100640007944CDE9031011466846FFF7BDFE0FB0AF
:1006500000BD0000E5FFFFFF0A6802F8010B0A6019
:10066000704710B5203AC0F00B80B1E81850203A1E
:10067000A0E81850B1E81850A0E81850BFF4F5AF42
:100680005FEA027C24BFB1E81850A0E8185044BFCC
:1006900018C918C0BDE810405FEA827C24BF51F839
:1006A000043B40F8043B08BF7047D20728BF31F82D
:1006B000023B48BF11F8012B28BF20F8023B48BF7E
:1006C00000F8012B70474FF000020429C0F012809F
:1006D00010F0030C00F01B80CCF1040CBCF1020FF5
:1006E00018BF00F8012BA8BF20F8022BA1EB0C01CA
:1006F00000F00DB85FEAC17C24BF00F8012B00F8C0
:10070000012B48BF00F8012B70474FF0000200B5E5
:10071000134694469646203922BFA0E80C50A0E824
:100720000C50B1F12001BFF4F7AF090728BFA0E8D2
:100730000C5048BF0CC05DF804EB890028BF40F89E
:10074000042B08BF704748BF20F8022B11F0804FE0
:1007500018BF00F8012B7047754600F02BF8AE4625
:1007600005006946534620F00700854618B020B5BD
:10077000FFF7A0FDBDE820404FF000064FF0000756
:100780004FF000084FF0000B21F00701AC46ACE839
:10079000C009ACE8C009ACE8C009ACE8C0098D46A6
:1007A000704710B50446AFF300802046BDE8104006
:1007B000FFF71ABD004870476C7A002001491820E5
:1007C000ABBEFEE7260002007047014605E00020B0
:1007D00000E0401CB0F57A7FFBD30A1EA1F10101B5
:1007E000F5D1704708B50121402000F0E7F94FF638
:1007F000FF70ADF8000010208DF8030003208DF885
:1008000002006946014800F049F908BD001801409E
:1008100018B10221034A116003E00221014A121DAE
:10082000116070471008014070B50021084600F0C3
:1008300010F800240AE0002504E0FF2000F0A4F8EE
:10084000681CC5B2542DF8DB601CC4B2062CF2DB68
:1008500070BD70B504460D4645F0400000F07EF8CE
:1008600044F0800000F07AF870BD000008B5012166
:10087000052000F0A3F90F20ADF8000010208DF83E
:10088000030001208DF8020069461F4800F006F9B8
:1008900000F090F80A20FFF798FF002000F0D6F84B
:1008A0000821194800F087F96420FFF78EFF042122
:1008B000154800F07EF96420FFF787FF04211248F5
:1008C00000F079F96420FFF780FF212000F046F85E
:1008D000C02000F043F8202000F040F80D2000F088
:1008E0003DF8212000F03AF8C02000F037F8202031
:1008F00000F034F8FFF798FF00210846FFF7A9FF42
:1009000002A000F01FF808BD0008014048656C6CAB
:100910006F00000070B50546A5F12000C6B20024A6
:100920000BE006EB4601064A02EB4101095DC943B3
:10093000C8B200F029F8601CC4B2062CF1DB70BD0F
:10094000182B000810B5044603E02078FFF7E2FFFB
:10095000641C20780028F8D110BD000010B50446B2
:100960000821084800F025F90220FFF72EFF00209B
:10097000FFF74EFF204600F069F80821014800F01B
:100980001AF910BD0008014010B5044608210848B6
:1009900000F00FF90220FFF718FF0120FFF738FFE2
:1009A000204600F053F80821014800F004F910BD7A
:1009B0000008014000B587B00121052000F0FEF8D5
:1009C000E020ADF8040018208DF8070002208DF813
:1009D000060001A91B4800F061F81020ADF80400E2
:1009E0008DF8070001208DF8060001A9154800F0D8
:1009F00055F80121080300F0E1F84FF48270ADF8DA
:100A00000A000020ADF80C000220ADF80E00012015
:100A1000ADF810004002ADF812002820ADF8140027
:100A20000020ADF816000720ADF8180002A906480E
:100A300000F0EAF80121044800F0D0F800F0DAF8FC
:100A400007B000BD000801400030014010B5044669
:100A500000BF1148008900F002000028F9D02146AB
:100A60000D4800F0CFF800BF0B48008900F00200ED
:100A70000028F9D000BF0848008900F001000028D4
:100A8000F9D000BF0448008900F080000028F9D1A7
:100A900001488089C0B210BD003001402DE9F0410D
:100AA000024600250026002000230024002791F89C
:100AB00003C00CF00F0591F803C00CF0100CBCF152
:100AC000000F03D091F802C04CEA050591F800C070
:100AD000BCF1000F31D0146800202BE04FF0010C66
:100AE0000CFA00F3B1F800C00CEA03069E4220D1D4
:100AF00083004FF00F0C0CFA03F7BC4305FA03FC1C
:100B00004CEA040491F803C0BCF1280F06D14FF061
:100B1000010C0CFA00FCC2F814C00AE091F803C002
:100B2000BCF1480F05D14FF0010C0CFA00FCC2F8E3
:100B300010C0401C0828D1D31460B1F800C0BCF12B
:100B4000FF0F34DD546800202EE000F1080C4FF058
:100B5000010808FA0CF3B1F800C00CEA03069E4243
:100B600021D183004FF00F0C0CFA03F7BC4305FAB8
:100B700003FC4CEA040491F803C0BCF1280F05D132
:100B800000F1080C08FA0CF8C2F8148091F803C0C0
:100B9000BCF1480F07D100F1080C4FF0010808FA2A
:100BA0000CF8C2F81080401C0828CED35460BDE871
:100BB000F0814161704701617047000029B1064A28
:100BC00092690243044B9A6104E0034A92698243AA
:100BD000014B9A61704700000010024021B1028869
:100BE00042F04002028004E002884FF6BF731A40D0
:100BF0000280704710B510210148FFF7DAFF10BDE1
:100C0000000801408181704710B50022028802F47B
:100C100041520B884C8823438C882343CC88234340
:100C20000C8923434C8923438C892343CC89234358
:100C30001A430280838B4FF2FF74234083830B8A15
:100C4000038210BD10B500F001F810BD0CB50020F6
:100C5000019000903F48006840F480303D490860B2
:100C600000BF3C48006800F4003000900198401C30
:100C70000190009818B90198B0F5A06FF1D13548EE
:100C8000006800F4003010B10120009001E0002065
:100C90000090009801285CD12F48006840F01000B7
:100CA0002D4908600846006820F0030008600846E7
:100CB000006840F002000860264840682549486006
:100CC0000846406848600846406840F480604860D4
:100CD0000846C06A214908401E49C8620846C06AE1
:100CE0001F4908431B49C8620846006840F08060FD
:100CF000086000BF1748006800F000600028F9D0C5
:100D00001448406820F47C10124948600846406846
:100D100040F4E81048600846006840F080700860C1
:100D200000BF0C48006800F000700028F9D00948A6
:100D3000406820F00300074948600846406840F0DA
:100D40000200486000BF0348406800F00C0008281B
:100D5000F9D10CBD001002400020024000F0FEFF5F
:100D60004406010010B5FFF789FA01F081FC18B1C3
:100D70004FF08050024908600020FFF786FA10BD4E
:100D800004ED00E0F0B50021002000230024002243
:100D900000250026354F7F6807F00C0121B104299A
:100DA00008D008294BD10BE0314FDFF8C8C0CCF890
:100DB00000704AE0304FDFF8BCC0CCF8007044E06F
:100DC0002A4F7F6807F47010284F7F6807F480333C
:100DD000800C0D2801D0801C00E0062033B9274F7D
:100DE0004743DFF890C0CCF8007027E01F4FFF6A40
:100DF00007F480341D4FFF6A07F00F077A1C44B9CF
:100E00001D4FB7FBF2F74743DFF868C0CCF800701E
:100E100014E0164FFF6AC7F303177D1C134FFF6AD8
:100E2000C7F30327BE1C144FB7FBF5F77743B7FB97
:100E3000F2F74743DFF83CC0CCF8007005E00C4FF8
:100E4000DFF830C0CCF8007000BF00BF074F7F68EC
:100E5000C7F30317DFF828C01CF80710054F3F68D9
:100E6000CF40DFF810C0CCF80070F0BD0010024099
:100E700000127A006000002040787D0100093D00EA
:100E80006400002010B51648006840F001001449C5
:100E90000860084640681349084011494860084600
:100EA0000068114908400E4908600846006820F4AF
:100EB000802008600846406820F4FE00486008462C
:100EC000006820F0A05008604FF47F008860002088
:100ED000C862FFF7B7FE4FF000600449086010BD1C
:100EE000001002400000FFF0FFFFF6FE08ED00E0FA
:100EF00008B512E04FF0FF310023012200910721D5
:100F0000064C206800F0DAFF00F0010129B1044925
:100F1000096881F47F41024A1160EBE75C00002020
:100F20000C18014008B500251AE04FF0FF300023EF
:100F30000122072100900B48006800F0BFFF044623
:100F400004F0020060B16D1C2A4607A10948FFF7B2
:100F5000C3F900210846FFF77CFC0648FFF7F2FCC6
:100F6000E3E700005C0000204E756D6265723A2573
:100F700035640000A479002000F03AFF0F490860B2
:100F80001AE001210D48006800F03FFF4FF4FA60BD
:100F900000F05EFD02210948006800F036FF4FF4C2
:100FA000FA6000F055FD07210448006800F02DFFAD
:100FB0004FF4FA6000F04CFDE3E700005C00002015
:100FC00030380A2801D20120704700207047000005
:100FD0001FB5FFF757FFFFF7D5FEFFF703FCFFF73D
:100FE00045FC00200090019002900346802210A151
:100FF0000390124801F08AFA0020009001900290BC
:10100000034680220EA103900F4801F07FFA0020D2
:10101000009001900290034680220CA103900D489D
:1010200001F074FA00F06CFE002004B010BD000066
:101030005461736B4D61696E00000000790F000808
:101040005461736B41000000F10E00085461736B32
:1010500042000000250F000810B504460E48006845
:1010600044600E480068844207D20B480168091D9D
:101070000B48006800F004FC0CE007480168091DFB
:101080000848006800F0FCFB07480068844201D271
:101090000548046010BD000000000020140000207E
:1010A0000800002004000020300000202DE9F0415D
:1010B00005460F461FB9A80000F058FB00E038466F
:1010C000064656B1582000F051FB04460CB1266389
:1010D00004E0304600F032FC00E0002424B1A90016
:1010E000A522206BFFF73CFA2046BDE8F081000006
:1010F00010B500F0EBFB1448006808BB134800F083
:10110000AFFB134800F0ACFB1048124908601048D0
:101110001149086000220C210A2000F0A5FF0A49AD
:1011200008600846006818B9FFF7A8F800BFFEE796
:101130000548006820B109A10348006800F054FC8C
:1011400000F0E6FB10BD0000400000207C01002004
:1011500090010020380000203C000020546D7251A6
:101160000000000070B523E000F0FAFD13480068AD
:1011700008B9012000E00020054601F0FDFBBDB9E3
:1011800000F0A4FB0D48C068C468201D00F046FBB9
:101190000B480068401E0A4908600A480068401E63
:1011A0000849086000F0B4FB204600F062F800BF78
:1011B000044800680028D7D170BD00005401002009
:1011C000100000200C00002070B504460D46206C75
:1011D00070B1216CE0680844E0606168E0688842B2
:1011E00001D32068E0602846226CE168FFF773F9BC
:1011F00070BD2DE9F04104460E4615460027206CCF
:1012000040B9206878BB606801F0D0FA074600203A
:10121000606028E07DB93146226CA068FFF75BF979
:10122000216CA0680844A060D4E9011088421AD358
:101230002068A06017E03146226CE068FFF74BF9A8
:10124000216CE068401AE0602168E068884203D2BF
:10125000216C6068401AE060022D04D1A06B10B1CF
:10126000A06B401EA063A06B401CA0633846BDE885
:10127000F08110B50446206B00F060FB204600F0C2
:101280005DFB10BD0146084A126812680AB90122C6
:1012900000E000220A600A6822B9034A1268D26894
:1012A000106800E0002070473800002000BFFFF702
:1012B00059FF034800680128F9D900F089FBF6E7D7
:1012C000B40000202DE9F04704460F461546994624
:1012D000DDF82080002607E0B95D04F13400815577
:1012E000B85D00B902E0761C0A2EF5D300BF0021DC
:1012F0003D200155052D00D30425E562A56400209D
:10130000E064201D00F0B9FA04F1180000F0B5FA0D
:101310002461C5F10500A06164620020206584F8A5
:101320005400BDE8F087000010B5002407E004EB8E
:1013300084010F4A02EB810000F092FA641C052C34
:10134000F5D30C4800F08CFA0B4800F089FA0B48F2
:1013500000F086FA0A4800F083FA0A4800F080FAA2
:1013600004480949086004480849086010BD0000A5
:10137000B4000020180100202C01002040010020B2
:101380005401002068010020040000200800002013
:101390002DE9F04104460D4616461F464FF0000861
:1013A00065602461B5420CD8F01BA169884202D364
:1013B0004FF0010811E0211D0948006800F060FAB3
:1013C0000BE0BE4204D2BD4202D34FF0010804E05C
:1013D000211D0448006800F053FA4046BDE8F08142
:1013E0003C0000203800002070B5054600F06EFA81
:1013F000A86B08B9012400E0002400F089FA204617
:1014000070BD70B5054600F061FAA86BE96B8842C3
:1014100001D1012400E0002400F07AFA204670BDDA
:10142000F8B505460F4613480068C068C468201D1B
:1014300000F0F4F9E069012817D1A06941192B46A1
:101440003A462046FFF7A4FF01280ED100200346AC
:101450002A4601460090204601F028FB06461EB9A8
:10146000FEF70CFF00BFFEE700BF2046616A884719
:10147000F8BD00003800002070B586B05DE003982C
:1014800000285ADB059C606908B9012000E00020B3
:1014900010B9201D00F0C2F902A800F09BF8054623
:1014A00003980A2847D2DFE800F00905072B2D42F0
:1014B00006082C2E00BF00BF00BF00BF0498A26921
:1014C000811803462A462046FFF762FF012816D1FD
:1014D0002046616A8847E069012810D10020009009
:1014E0000498A169421800231946204601F0DEFA4B
:1014F00006461EB9FEF7C2FE00BFFEE700BF1BE0B6
:1015000000BF19E000BF0498A061A06908B10120E4
:1015100000E0002018B9FEF7B1FE00BFFEE7A069A9
:1015200041192B462A462046FFF732FF04E02046A9
:1015300000F004FA00E000BF00BF00231A4603A930
:101540000348006800F0C8FD002898D106B070BDBF
:1015500040000020F8B504460E4600F001FC684645
:1015600000F038F805460098A0B946B9AC4206D854
:1015700001F002FA29462046FFF752FF0CE0611BFA
:101580000648006800F046FA01F0F6F920B900F0CC
:101590001FFA01E001F0F0F9F8BD00004000002062
:1015A0000A490968096809B9012100E0002121B14F
:1015B0004FF0FF31064A116006E004490968C96826
:1015C000C868034A416811607047000004000020A9
:1015D0003000002070B5044601F044F80546074885
:1015E0000068854204D200F00BF80120206001E081
:1015F0000020206001480560284670BD440000209E
:101600002DE9F8432BE020480068C06805681E48B3
:101610000068C068C468201D00F000F92046616AB7
:101620008847E06901281AD1A0694619AE4207D956
:1016300066602461211D1448006800F021F90EE065
:10164000002003462A4601460090204601F02EFA6B
:1016500007461FB9FEF712FE00BFFEE700BF0A48AB
:101660000068006808B9012000E000200028CAD006
:101670000548D0F800800548006803490860034821
:10168000C0F80080BDE8F883380000203C0000204E
:1016900007480068401C08B9012000E0002018B984
:1016A000FEF7ECFD00BFFEE7FEF7E8FD00BFFEE73A
:1016B0004800002010B50346002022B903EA0104C7
:1016C00034B1012004E003EA01048C4200D101207E
:1016D00010BD08B500BF6846FFF7D4FD044620469C
:1016E0000099FFF737FFFFF7C7FEF4E710B5044690
:1016F00000F0ECF811E0606A08B9012000E0002079
:1017000038B904F1240001F0A7F818B100F0D8F9B5
:1017100000E005E0A06C401EA064A06C0028EADC9C
:1017200000BF4FF0FF30A06400F0F2F800F0CEF8F8
:1017300011E0206908B9012000E0002050B904F14F
:10174000100001F089F808B100F0BAF9606C401E91
:10175000606400E002E0606C0028EADC00BF4FF04B
:10176000FF30606400F0D4F810BD000070B504468E
:10177000002504F0070020B104F00700C0F10800C4
:10178000044400F0EDFA1248006820B9114820F036
:1017900007000F49086010480068204447F2F871BC
:1017A000884210D20C48006820440B4909688842DE
:1017B00009D90748006808490968451806480068BB
:1017C00020440549086001F0D7F8284670BD0000A4
:1017D00058000020AC01002054000020064800689A
:1017E00030B10549096801F14C00C96C491C016020
:1017F000014800687047000000000020001F4FF003
:1018000080730360001F0160001F034B03601438E6
:1018100002602038704700009116000801460A69EE
:10182000D1E901309860D1E90103586050688842DD
:1018300001D188685060002008611068401E106067
:101840001068704705490968886904490968C96AC8
:10185000C1F10501014A1268916170470000002042
:1018600000F1080141604FF0FF31816000F1080193
:10187000C160016100210160704700210161704772
:1018800010B502460B685C1C0CB9106907E002F148
:10189000080000E04068446824689C42FAD9446823
:1018A0004C604C68A160886041600A611468641CE7
:1018B000146010BD42684A6093688B6093685960F9
:1018C0009160086103685B1C0360704710B5FEF708
:1018D000D5FC0D480068401C0B490860BFF34F8FD2
:1018E000BFF36F8F0846006801280BD107480068D6
:1018F000C0B208B9012000E0002018B9FEF7BEFC14
:1019000000BFFEE710BD00004800002004ED00E02D
:1019100010B50948006818B9FEF7B0FC00BFFEE733
:1019200005480068401E044908600846006810B970
:101930000020FEF7AAFC10BD4800002010B50446A8
:101940000CB9012000E0002018B9FEF797FC00BF99
:10195000FEE710BD064800684FF47A71B0FBF1F065
:10196000401E4FF0E02148610720086170470000E9
:101970006000002070B5FEF78BFC0546102D0FD3DC
:1019800005F1E02090F8F0430E480078844201DB36
:10199000012000E0002018B9FEF770FC00BFFEE750
:1019A0000948006800F4E06008490968884201D8E5
:1019B000012000E0002018B9FEF760FC00BFFEE740
:1019C00070BD00004C0000200CED00E05000002035
:1019D0004FF0805003490860BFF34F8FBFF36F8F04
:1019E0007047000004ED00E0024600200BE0084BC9
:1019F00053F8303033B9064B43F8301003EBC003D3
:101A00005A6002E0401C0828F1D300BF7047000074
:101A10007400002070B505460E462C46FFF756FFB1
:101A2000606C401C08B900206064A06C401C08B9C0
:101A30000020A064FFF76CFFA06B20B9314604F1D1
:101A4000240000F07BF82046FFF750FE70BD000038
:101A500070B50446002634B31548006808B9012063
:101A600000E0002018B9FEF709FC00BFFEE700F017
:101A700077F91048006805190F480068001DFFF746
:101A8000CDFE50B90C48006890F82C100120884019
:101A90000A4909688143094801602846FFF7DCFAD2
:101AA00000F06AFF06460EB9FFF792FF70BD000016
:101AB0003400002014000020000000201800002046
:101AC00001200149086070472400002070B50546D8
:101AD0000C461DB9FEF7D2FB00BFFEE713480168B4
:101AE00018312846FFF7CCFE10480068001DFFF7AC
:101AF00095FE50B90D48006890F82C1001208840E0
:101B00000B49096881430A480160601C30B90748E5
:101B10000168091D0748FFF7CDFE05E0064800688B
:101B200006193046FFF798FA70BD0000000000204B
:101B300018000020680100201400002070B5044641
:101B40000D461CB9FEF79AFB00BFFEE70E48016880
:101B500018312046FFF7AEFE0B480068001DFFF766
:101B60005DFE50B90848006890F82C1001208840AC
:101B7000064909688143054801600548006846191F
:101B80003046FFF769FA70BD000000201800002001
:101B9000140000202DE9F04105460E4614461DB9FB
:101BA000FEF76CFB00BFFEE71B48006808B1012090
:101BB00000E0002018B9FEF761FB00BFFEE746F029
:101BC00000401649096888611448016818312846A0
:101BD000FFF770FE11480068001DFFF71FFE50B9A7
:101BE0000E48006890F82C10012088400C490968C4
:101BF00081430B480160601C30B908480168091D29
:101C00000848FFF757FE05E00748006807193846FF
:101C1000FFF722FABDE8F081340000200000002028
:101C200018000020680100201400002070B505464F
:101C30002C46002D4BD02649E06A0968C96A8842C3
:101C400045D2A06900F0004028B921480068C06A68
:101C5000C0F10500A061E16A01EB81011D4A02EBC0
:101C600081016069884201D1012000E0002050B369
:101C7000201DFFF7D3FD78B9E06A00EB800015491D
:101C800051F8200040B994F82C10012088401249E6
:101C900009688143104801600D480068C06AE0622D
:101CA00094F82C10012088400B49096808430A4920
:101CB0000860E16A01EB8101064A02EB8100211D07
:101CC000FFF7F8FD03E002480068C06AE06270BDFB
:101CD00000000020B40000201800002010B50446C9
:101CE0001CB9FEF7CBFA00BFFEE70348006820608E
:101CF00002480068606010BD280000201400002029
:101D00001FB50020009001900290034682220FA18F
:101D10000390104800F0FAFB0446012C02D100F0B9
:101D20009FFE0446012C0AD1FEF7A8FA01200A49B9
:101D3000086000200949086000F046F904E01CB979
:101D4000FEF79CFA00BFFEE71FBD000049444C456A
:101D500000000000AD1200081C000020140000204C
:101D600002480068401C01490860704734000020A8
:101D700010B51A48006818B10120194908602BE015
:101D800000201749086017480068B0FA80F0C0F1D9
:101D90001F0404EB8400144951F8200008B101200D
:101DA00000E0002018B9FEF769FA00BFFEE704EB77
:101DB00084010D4A02EB810041684968416000F1ED
:101DC000080142688A4202D141684968416041681D
:101DD000C968064A116000BF10BD00003400002031
:101DE0002400002018000020B40000200000002083
:101DF00010B51C20FFF7BAFC044624B10020206077
:101E0000201DFFF72DFD204610BD2DE9FE4F074692
:101E10008846002001903C4600901FB9FEF72EFA3C
:101E200000BFFEE708F07F4008B9012000E0002075
:101E300018B9FEF723FA00BFFEE704F1040909F11F
:101E400008000290FFF78CFFD9F80C60206840EA88
:101E50000800206026E0D6F804B035680020009025
:101E600005F07F4A25F07F450AF0806028B9206898
:101E7000284040B10120009005E020682840A84299
:101E800001D101200090009858B10AF0807010B183
:101E9000019828430190206840F00071304600F01E
:101EA00021FD5E4602988642D5D12068019988437B
:101EB000206000F061FD2068BDE8FE8F2DE9FF4F36
:101EC00083B081460D461746DDF840804C464FF002
:101ED000000A00200190B9F1000F03D1FEF7CEF9FE
:101EE00000BFFEE705F07F4008B9012000E00020B8
:101EF00018B9FEF7C3F900BFFEE70DB1012000E0FD
:101F0000002018B9FEF7BAF900BFFEE700F09AFB0F
:101F100010B9B8F1000F01D1012000E0002018B97C
:101F2000FEF7ACF900BFFEE7FFF71AFF206800904C
:101F30002946069A0098FFF7BDFB0290029838B137
:101F4000009E4FF00008B7B12068A843206012E05F
:101F5000B8F1000F01D1009E0DE00FB14AF0807A78
:101F6000069808B14AF0806A45EA0A014246201DF7
:101F7000FFF710FE002600F0FFFC8346B8F1000FCB
:101F80001DD0BBF1000F01D1FFF722FDFFF75AFC76
:101F9000064606F0007080B9FFF798FC26682946CF
:101FA0003046069AFFF786FB18B117B12068A843A0
:101FB0002060FFF7ADFC0020019026F07F46304600
:101FC00007B0BDE8F08F00001CB522480146097833
:101FD0000191FF21024611700146097800919DF898
:101FE000001001F050011C4A117007211B4A1160BA
:101FF00009E01A490968491E184A11609DF8001045
:102000004906090E00919DF8001001F08001802919
:10201000EFD0124909680902104A11601146098877
:1020200001F4E06111600B4A019911700C480068DD
:1020300040F470000A4908600846006840F07040AB
:102040000860FFF787FC002006490860FEF7E4F807
:1020500000201CBD00E400E04C00002050000020E7
:1020600020ED00E0480000202DE9F04707460D462E
:1020700091464FF0000A0FB1012000E0002018B98E
:10208000FEF7FCF800BFFEE715B94FF0000803E0CB
:1020900007FB05F000F1010808F15400FFF766FBAB
:1020A00006467EB134460DB9246002E006F15400C4
:1020B0002060E76325640121204600F0BAF884F827
:1020C0005090A246BAF1000F03D1FEF7D7F800BF37
:1020D000FEE75046BDE8F0872DE9FF4383B0054693
:1020E0000E461F464FF000092C461CB9FEF7C6F8F5
:1020F00000BFFEE70EB9206C08B9012000E0002007
:1021000018B9FEF7BBF800BFFEE700F09BFA08B96C
:10211000059808B9012000E0002018B9FEF7AEF8D4
:1021200000BFFEE700BFFFF7D1FBA06B90B3D4F870
:102130000C8031462046FFF747F8B7B9A06B401E28
:10214000A063206810B9FFF749FB6060206908B9F7
:10215000012000E00020B8B904F1100000F07CFB81
:10216000012811D1FFF734FC0EE0C4F80C80606A3E
:1021700008B9012000E0002030B904F1240000F08B
:102180006BFB08B1FFF724FCFFF7C2FB012007B08F
:10219000BDE8F083FFE7059818B9FFF7B9FB002009
:1021A000F5E7B9F1000F04D101A8FFF797FD4FF053
:1021B0000109FFF7ADFBFFF7D3FDFFF787FB606C6D
:1021C000401C08B900206064A06C401C08B90020C5
:1021D000A064FFF79DFB05A901A800F05DF908BB0D
:1021E0002046FFF701F9B8B1206830B9FFF76EFB60
:1021F0006068FFF71BFDFFF78BFB04F124000599D6
:10220000FFF764FC2046FFF771FA00F0B5FB0028E9
:1022100089D1FFF7DDFB86E72046FFF767FA00F07C
:10222000ABFB80E72046FFF761FA00F0A5FB00203A
:10223000ADE770B505460E462C461CB9FEF71EF8F4
:1022400000BFFEE7FFF742FBD4E90F12206801FB55
:10225000020060600020A0632068A060E06B401E68
:10226000226C216800FB0210E0604FF0FF306064D8
:10227000A06476B9206908B9012000E0002080B987
:1022800004F1100000F0E8FA01280AD1FFF7A0FBE2
:1022900007E004F11000FFF7E3FA04F12400FFF770
:1022A000DFFAFFF735FB012070BD2DE9FF4383B056
:1022B000064688461D464FF0000934461CB9FDF716
:1022C000DDFF00BFFEE7B8F1000F01D1206C08B9B7
:1022D000012000E0002018B9FDF7D0FF00BFFEE7A5
:1022E000022D02D1E06B012801D1012000E0002085
:1022F00018B9FDF7C3FF00BFFEE700F0A3F908B966
:10230000059808B9012000E0002018B9FDF7B6FFD4
:1023100000BFFEE700BFFFF7D9FAA06BE16B884270
:1023200001D3022D1DD12A4641462046FEF761FF0A
:102330000746606A08B9012000E0002040B904F1B6
:10234000240000F089FA012805D1FFF741FB02E0E3
:102350000FB1FFF73DFBFFF7DBFA012007B0BDE847
:10236000F083059818B9FFF7D3FA0020F6E7B9F122
:10237000000F04D101A8FFF7B1FC4FF00109FFF7EE
:10238000C7FAFFF7EDFCFFF7A1FA606C401C08B933
:1023900000206064A06C401C08B90020A064FFF716
:1023A000B7FA05A901A800F077F8C0B92046FFF7F1
:1023B00028F870B104F110000599FFF787FB20465B
:1023C000FFF794F900F0D8FA0028A4D1FFF700FB3A
:1023D000A1E72046FFF78AF900F0CEFA9BE72046F6
:1023E000FFF784F900F0C8FA0020B7E72DE9F047BD
:1023F0000646894617461D4634461CB9FDF73EFF82
:1024000000BFFEE7B9F1000F01D1206C08B901202F
:1024100000E0002018B9FDF731FF00BFFEE7022DF4
:1024200002D1E06B012801D1012000E0002018B9A1
:10243000FDF724FF00BFFEE7FFF79CFAFDF71EFF44
:102440008246A06BE16B884201D3022D1CD12A4643
:1024500049462046FEF7CDFEA06C401C70B9606A6C
:1024600008B9012000E0002058B904F1240000F070
:10247000F3F930B12FB10120386002E0A06C401CAC
:10248000A0644FF0010801E04FF000085046FDF74E
:10249000FCFE4046BDE8F0872DE9F04104460D46BC
:1024A0001CB9FDF7EBFE00BFFEE71DB9FDF7E6FE28
:1024B00000BFFEE7FFF70AFA124807682868401CC9
:1024C00008B9002619E0104920680968884204D03C
:1024D0006068B84201D801260FE06068381A2968A0
:1024E000884209D228686168791A401A2860204613
:1024F000FFF7F4FB002600E00126FFF709FA30465B
:10250000BDE8F08114000020280000202DE9FF4FD5
:1025100081B0804616469A46DDE90E5BB8F1000FA1
:1025200003D1FDF7ABFE00BFFEE7052D01D2012070
:1025300000E0002018B9FDF7A1FE00BFFEE730461D
:102540001099FEF7B3FD0446002C5DD0701E216B80
:1025500001EB800929F0070909F0070008B90120FB
:1025600000E0002018B9FDF789FE00BFFEE70096E5
:102570002A462046119B0299FEF7A4FE5246414688
:102580004846FFF73BF92060BBF1000F01D0CBF8C4
:102590000040FFF79BF925480068401C234908606C
:1025A0002348006840B922480460084600680128B2
:1025B0000CD1FEF7B9FE09E01E48006830B91C488E
:1025C0000068C06AA84201D8194804601A48006827
:1025D000401C1949086008460068206494F82C10D3
:1025E0000120884015490968084314490860E16AD8
:1025F00001EB8101124A02EB8100211DFFF75AF91C
:102600000127FFF785F901E04FF0FF37012F09D1CE
:102610000848006830B106480068C06AA84201D284
:10262000FFF7D6F9384605B0BDE8F08F100000205E
:10263000000000201C0000202C00002018000020BA
:10264000B40000200549096809B9012005E00449E2
:10265000096809B9022000E0002070471C00002032
:102660003400002001490868704700001400002071
:102670002DE9F0414FF0000841480068002872D170
:1026800040480068401C3F49086008460668DEB9BB
:102690003D480068006808B9012000E0002018B932
:1026A000FDF7ECFD00BFFEE73748076837480068D4
:1026B000354908603548076035480068401C344992
:1026C0000860FEF76DFF00BF3248006886423CD3C9
:1026D00000BF2D480068006808B9012000E0002014
:1026E00020B14FF0FF302B4908602DE026480068EC
:1026F000C068C4686568AE4202D22648056023E01F
:10270000201DFFF78BF8A06A18B104F11800FFF73D
:1027100085F894F82C10012088401F490968084367
:102720001D490860E16A01EB81011C4A02EB81004E
:10273000211DFFF7BFF81A49E06A0968C96A884293
:10274000C7D34FF00108C4E700BF15480068C06A4E
:1027500000EB8000114951F82000012808D94FF002
:10276000010805E0FFE70F480068401C0D490860BC
:102770000D48006808B14FF001084046BDE8F081FF
:102780003400002014000020040000200800002075
:10279000280000203000002018000020B400002095
:1027A00000000020200000202400002070B5054615
:1027B0002C460026002D47D024480068844201D1D1
:1027C000012000E0002018B9FDF758FD00BFFEE72A
:1027D000E06C18B9FDF752FD00BFFEE7E06C401E4B
:1027E000E064A16CE06A88422ED0E06C60BB201DE2
:1027F000FFF714F878B9E06A00EB8000144951F84B
:10280000200040B994F82C10012088401149096833
:10281000814310480160A06CE062E06AC0F10500ED
:10282000A06194F82C10012088400A4909680843E7
:1028300008490860E16A01EB8101054A02EB810069
:10284000211DFFF737F80126304670BD000000203B
:10285000B40000201800002070B50646F068C46877
:102860001CB9FDF70BFD00BFFEE704F11800FEF7F1
:10287000D5FF16480068A8B9201DFEF7CFFF94F8D1
:102880002C1001208840124909680843104908604B
:10289000E16A01EB81010F4A02EB8100211DFFF784
:1028A00009F804E004F118010B48FFF703F80B499D
:1028B000E06A0968C96A884204D9012501200849EB
:1028C000086000E00025284670BD000034000020AC
:1028D00018000020B400002040010020000000206B
:1028E000240000202DE9F04105460F461D480068F0
:1028F00008B1012000E0002018B9FDF7BFFC00BFBF
:10290000FEE747F000402860EC681CB9FDF7B6FC14
:1029100000BFFEE72846FEF781FF201DFEF77EFF81
:1029200094F82C10012088400F49096808430E498B
:102930000860E16A01EB81010C4A02EB8100211D74
:10294000FEF7B8FF0A49E06A0968C96A884204D9F3
:10295000012601200749086000E000263046BDE856
:10296000F08100003400002018000020B400002096
:10297000000000202400002070B5002530480068C9
:1029800018B9FDF77BFC00BFFEE7FEF79FFF2C4860
:102990000068401E2A4908600846006800284BD19C
:1029A00028480068002847D024E02748C068C46849
:1029B00004F11800FEF732FF201DFEF72FFF94F8F8
:1029C0002C10012088402149096808431F490860EC
:1029D000E16A01EB81011E4A02EB8100211DFEF735
:1029E00069FF1C49E06A0968C96A884202D301206C
:1029F000194908601448006808B9012000E0002067
:102A00000028D2D01548006878B10AE0FFF730FE00
:102A100010B101201049086010480068401E0F499D
:102A200008600E4800680028F0D10B4800680128B3
:102A300002D10125FEF7CCFFFEF76AFF284670BDE4
:102A40003400002010000020400100201800002069
:102A5000B4000020000000202400002020000020FE
:102A60001FB50024FEF744FB0C48006868B1002045
:102A70000223CDE90030029003464FF4827208A190
:102A800003900948FFF742FD04461CB9FDF7F6FB29
:102A900000BFFEE7204604B010BD0000400000204B
:102AA000546D722053766300D31600082DE9FE435F
:102AB00005460C4616461F46DDF828804FF00009F3
:102AC0001448006810B3009401960295062C15DA9C
:102AD000FFF7B8FD022808D10023424669460D4899
:102AE0000068FFF7E2FB814610E000231A466946C2
:102AF00008480068FFF7D9FB814607E000233A4603
:102B0000694604480068FFF771FC81464846BDE805
:102B1000FE830000400000200000000000000000D4
:102B20002F000000000700070000147F147F14002E
:102B3000242A7F2A12006264081323003649552292
:102B40005000000503000000001C2241000000416D
:102B5000221C000014083E08140008083E08080063
:102B60000000A0600000080808080800006060007D
:102B700000002010080402003E5149453E0000427A
:102B80007F4000004261514946002141454B3100E0
:102B90001814127F10002745454539003C4A494921
:102BA00030000171090503003649494936000649DC
:102BB00049291E000036360000000056360000008D
:102BC00008142241000014141414140000412214AB
:102BD0000800020151090600324959513E007C1299
:102BE00011127C007F49494936003E414141220093
:102BF0007F4141221C007F49494941007F09090961
:102C000001003E4149497A007F0808087F000041E1
:102C10007F4100002040413F01007F081422410015
:102C20007F40404040007F020C027F007F0408107C
:102C30007F003E4141413E007F09090906003E41B7
:102C400051215E007F091929460046494949310052
:102C500001017F0101003F4040403F001F20402014
:102C60001F003F4038403F0063140814630007080A
:102C700070080700615149454300007F4141000051
:102C8000552A552A55000041417F000004020102E7
:102C90000400404040404000000102040000205475
:102CA000545478007F484444380038444444200059
:102CB000384444487F00385454541800087E0901B1
:102CC000020018A4A4A47C007F0804047800004437
:102CD0007D4000004080847D00007F10284400007B
:102CE00000417F4000007C04180478007C08040444
:102CF0007800384444443800FC2424241800182464
:102D00002418FC007C080404080048545454200093
:102D1000043F444020003C4040207C001C204020D8
:102D20001C003C4030403C004428102844001CA0BB
:102D3000A0A07C004464544C4414141414141400D3
:102D4000602D000800000020740000008C010008C5
:102D5000D42D0008740000205C800000A801000849
:102D60000000000000000000000000000000000063
:102D70000000000000000000000000000000000053
:102D80000000000000000000000000000000000043
:102D9000FFFFFFFF00000000000000000000000037
:102DA0000000000000000000AAAAAAAA000000007B
:102DB0000000000000000000000000000000000013
:102DC00000A24A0400000000000000000102030409
:042DD00006070809E1
:04000005080001519D
:00000001FF
