:020000040800F2
:1000000028380020D5020008DD020008DF020008C1
:10001000E1020008E3020008E50200080000000019
:100020000000000000000000000000003D02000889
:10003000E9020008000000008102000875210008A4
:10004000EF020008EF020008EF020008EF020008CC
:10005000EF020008EF020008EF020008EF020008BC
:10006000EF020008EF020008EF020008EF020008AC
:10007000EF020008EF020008EF020008EF0200089C
:10008000EF020008EF020008EF020008EF0200088C
:10009000EF020008EF020008EF020008EF0200087C
:1000A000EF020008EF020008EF020008EF0200086C
:1000B000EF020008EF020008EF020008EF0200085C
:1000C000EF020008EF020008EF020008EF0200084C
:1000D000EF0200085D230008C52300082D24000856
:1000E000EF020008EF020008EF02000800F002F83B
:1000F00000F090F80AA090E8000C82448344AAF132
:100100000107DA4501D100F085F8AFF2090EBAE82F
:100110000F0013F0010F18BFFB1A43F0010318473B
:10012000F847000018480000103A24BF78C878C18A
:10013000FAD8520724BF30C830C144BF04680C60ED
:10014000704700000023002400250026103A28BF35
:1001500078C1FBD8520728BF30C148BF0B60704739
:100160006E2900F06182702900F0A383662904F0F3
:100170005183652904F04E83672904F04B8361297C
:1001800004F04A8303681B0A28BF41F080016929F3
:1001900000F00E82642900F00B82752900F00882BD
:1001A0006F2900F03083782900F06F83E92900F08F
:1001B000CB82E42900F0C882F52900F0C582EF293E
:1001C00000F02D83F82900F06E830368DB0928BF57
:1001D00041F08001632901F0A380732901F0A88018
:1001E000E32901F0B380F32901F0B88000207047C3
:1001F0001FB501F005F904000020002104F0F4FA15
:10020000401C60600020002104F0D8FAE0601FBDAF
:1002100010B510BD01F0C6F8114603B402F09DFB05
:1002200003BCFFF7E5FF02F0A1FB01F0A1F903B465
:10023000FFF7EEFF03BC01F0A9F90000224B19689B
:100240000868B0E8F00F80F30988BFF36F8F4FF0B4
:10025000000080F311884EF00D0E70470000000082
:1002600006480068006880F3088862B661B6BFF38C
:100270004F8FBFF36F8F00DF00BF00BF08ED00E0BE
:10028000EFF30980BFF36F8F0F4B1A6820E9F00F6F
:10029000106008B54FF0100080F31188BFF34F8F46
:1002A000BFF36F8F03F056FB4FF0000080F311880F
:1002B000BDE8084019680868B0E8F00F80F30988C5
:1002C000BFF36F8F704700BF74000020EFF305800D
:1002D000704700000948804709480047FEE7FEE7ED
:1002E000FEE7FEE7FEE7FEE7FEE7FEE7FEE7FEE7E6
:1002F00004480549054A064B7047000031220008B2
:10030000ED00000828320020283800202834002082
:10031000283400201CB50C46064B7B4469460090EF
:10032000204600F09AF904460020694600F0A8F93A
:1003300020461CBD63030000032A40F2308010F009
:10034000030C00F0158011F8013BBCF1020F624470
:1003500098BF11F801CB00F8013B38BF11F8013B01
:10036000A2F1040298BF00F801CB38BF00F8013BAE
:1003700011F0030300F06C83083AC0F0088051F8D4
:10038000043B083A51F804CBA0E80810F5E7121D29
:100390005CBF51F8043B40F8043BAFF30080D20748
:1003A00024BF11F8013B11F801CB48BF11F8012B14
:1003B00024BF00F8013B00F801CB48BF00F8012B37
:1003C000704702F0FF0343EA032242EA024200F0D0
:1003D00002B84FF000020429C0F0128010F0030CA4
:1003E00000F01B80CCF1040CBCF1020F18BF00F828
:1003F000012BA8BF20F8022BA1EB0C0100F00DB8D7
:100400005FEAC17C24BF00F8012B00F8012B48BF34
:1004100000F8012B70474FF0000200B513469446D8
:100420009646203922BFA0E80C50A0E80C50B1F14C
:100430002001BFF4F7AF090728BFA0E80C5048BF60
:100440000CC05DF804EB890028BF40F8042B08BFFE
:10045000704748BF20F8022B11F0804F18BF00F8FA
:10046000012B70474FF0013C50F8042B51F8043B2E
:100470009A4221D1A2EB0C03934313EACC1317D178
:1004800050F8042B51F8043B9A4215D1A2EB0C030F
:10049000934313EACC130BD150F8042B51F8043BCF
:1004A0009A4209D1A2EB0C03934313EACC13DBD09D
:1004B0004FF00000704700BFD01A01BAB1FA81F1C5
:1004C00001F0180122FA01F0CB40C1F12001DBB2AA
:1004D000C0B2C01A2CFA01F3D11A914311EAC31128
:1004E000E6D1704770477047704770B5044685691C
:1004F0000068C10601D5302600E02026C00707D0DD
:1005000070BDD4E9012130469047206A401C20622A
:100510006D1EF6D570BD70B5044685690078C007BC
:1005200007D170BDD4E9012120209047206A401CEA
:1005300020626D1EF6D570BD09684A0501D540B22E
:100540007047C905FCD500B2704709684A0501D556
:10055000C0B27047C905FCD580B2704770B50C4673
:100560000546012A05D02878800600D5EA690023CF
:1005700002E0012305E05B1C934202D2E05C00280C
:10058000F9D1A869E618C01AA861286A1844286237
:100590002846FFF7AAFF04E0D5E9012114F8010B72
:1005A0009047B442F8D32846FFF7B5FF70BD00006E
:1005B0002DE9F0410646002410687529314616A53C
:1005C00010D0FFF7B9FF002802DA404213A507E078
:1005D00031688A0701D512A502E0490704D511A5A3
:1005E000012401E0FFF7B1FF00210A2206F12407F0
:1005F00009E0B0FBF2FCB0FBF2F302FB1C00303070
:1006000078541846491C0028F3D123462A46304620
:10061000BDE8F04100F093BA000000002D0000009A
:100620002B0000002000000011680268006A5305DA
:1006300001D508700AE0D30501D5088006E013064D
:1006400003D5C217C1E9000200E00860012070472D
:1006500001694A1C02610878704700B58FB0CDE986
:1006600001310021059105497944CDE90310114676
:10067000684600F029F90FB000BD0000E5FFFFFF5C
:100680000A6802F8010B0A60704700002DE9FF5F5D
:1006900015468A460446DFF8AC80F8440027D8E9BE
:1006A00000103E46CDE9001010E03AF816106A46F8
:1006B00002A800F057FE411C07D02178890603D517
:1006C000E269391891420DD80744761C20788006DB
:1006D00002D5E069B84205DDAE42E6DB3AF8160025
:1006E0000028E2D1A069C01BA0612046FFF7FDFEF3
:1006F000D8E90010CDE90010002017E03AF81810F2
:100700006A4602A800F02EFEB0F1FF3F81460BD0F2
:1007100000250DF1080B05E0D4E901211BF80500C7
:1007200090476D1C4D45F7D308F10100B04280465B
:10073000E4DB206A384420622046FFF7ECFEBDE887
:10074000FF9F00007E4100002DE9F0418046D21D50
:1007500022F007020025D2E90002F52915A614D0DF
:10076000011E72F1000106DA0023D0EB030063EBF7
:10077000020211A608E0D8F800108B0701D50FA6D9
:1007800002E0490701D50EA601251146002408F113
:10079000240704E000F08EF930323A55641C50EA28
:1007A0000102F7D12B46324621464046BDE8F041D2
:1007B00000F0C5B9000000002D0000002B00000073
:1007C0002000000030B4002100F1240408E002F011
:1007D0000705D208303542EA4372DB086554491CEC
:1007E00052EA0305F3D10468002310A2250707D5B8
:1007F000A40600D421B1C46901230DA2641EC46102
:1008000030BC00F09CB910B5044621461068FFF7D3
:100810009CFE02462046BDE810400023D2E7D21DD0
:1008200022F00701D1E90023CCE70000000000001E
:1008300030000000F0B40D460188090502D5214CB6
:100840007C4402E01F4C7C440E34002100F124065D
:1008500008E002F00F071209E75D42EA03721B0984
:100860007754491C52EA0307F3D102780023120798
:1008700004D5702D06D009B1022311342246F0BCF4
:1008800000F05DB901231034F8E770B504460D4659
:1008900021461068FFF759FE024629462046BDE86A
:1008A00070400023C6E7D21D22F00703D3E90023DE
:1008B000C0E70368126843F0200303600823C361A4
:1008C0000023B7E7E03F00002DE9F05F89460446CA
:1008D0004FF0000ADFF874B1FB44C0F820A02046B6
:1008E000E1688847002874D0252806D0D4E9012182
:1008F0009047206A401C2062F1E700265F462046B0
:10090000E16888472028054607DB312D05D2781994
:1009100010F8200C08B10643F1E7B00701D526F026
:100920000406C4F81CA00027C4F818A02A2D09D07A
:10093000284601F09DFF38B304EB8708303DC8F826
:10094000185019E059F8041B204604EB8702916106
:10095000E1688847012F054618D1E069002820DAB0
:1009600026F020061DE0D8F8180000EB800005EB0B
:1009700040003038C8F818002046E168884705462E
:1009800001F076FF0028EED1012F0AD02E2D08D1DC
:100990002046E16888477F1C0546022F46F0200666
:1009A000C4DBA069002803DA404246F00106A061DA
:1009B000F00701D026F010066C2D0BD0682D09D061
:1009C0004C2D39D06A2D35D0742D35D07A2D33D0B9
:1009D00016E038E0E1682F4620468847B8420546D1
:1009E00009D16C2F26D04FF48060E1680643204681
:1009F0008847054604E06C2F1AD04FF480700643F8
:100A00000DB3A5F14100192802D8203546F400663F
:100A10004A462946204626604E46FFF7A1FB80B194
:100A200001280BD0F61D26F0070000F1080956E753
:100A30004020E4E78020D8E70020D6E706F104094B
:100A40004DE7284652E7206ABDE8F09F703F00005E
:100A500010B5203AC0F00B80B1E81850203AA0E859
:100A60001850B1E81850A0E81850BFF4F5AF5FEA8D
:100A7000027C24BFB1E81850A0E8185044BF18C940
:100A800018C0BDE810405FEA827C24BF51F8043BE7
:100A900040F8043B08BF7047D20728BF31F8023B3B
:100AA00048BF11F8012B28BF20F8023B48BF00F8CF
:100AB000012B704730B5B0F10A024FEA900E71F188
:100AC00000034EEA817EB0EB0E0061EB91014FEA2C
:100AD000101E4EEA017E10EB0E0041EB11114FEAA1
:100AE000102E4EEA016E10EB0E0041EB11214FEA81
:100AF000104E4EEA014E10EB0E0041EB1141401832
:100B000041F100014FEAD00040EA41704FEAD101C3
:100B100010EB80054FEA810444EA907444EB010431
:100B20006D1944EB0404521BA3414FF0000348BF6E
:100B30000A3200D530BD401C41F1000130BD2DE925
:100B4000F0470D4699469246044600F12408016894
:100B5000880604D5E06921F01001216000E0012041
:100B6000A84201DD471B00E00027A1697A1902EBCA
:100B70000900081AA0612078C00602D42046FFF7B9
:100B8000B4FC002608E0D4E901211AF806009047D9
:100B9000206A401C761C20624E45F4DB2078C0069B
:100BA0000AD52046FFF7A1FC06E0D4E90121302058
:100BB0009047206A401C2062381EA7F10107F4DC30
:100BC00007E0D4E9012118F805009047206A401C8D
:100BD0002062281EA5F10105F3DC2046FFF79BFCEF
:100BE0002078000602D50220BDE8F0870120FBE74F
:100BF00070472DE9FF4F0C461E464FF0FF378BB074
:100C0000D2E90001DDF860800A908A46C1F30A55F6
:100C100005B93D46002108464FF00000BAF1000F2B
:100C200000F4400005DA00EB80004FF4400101EAD7
:100C300050004FEA9059B9F1010F00DDB9460A980A
:100C400050EA4A000ED044F61050A5F2FF35454355
:100C50002F14B8F1000F1ED07542291E1EDDC9F1F8
:100C600000021CE0B8F1010F4FF0000001D030216C
:100C700003E0F24305E02154401CB042FBDB304668
:100C80000022002121540B99C1F80880C1E90020FD
:100C90000FB0BDE8F08FBD1B6D1CDEE74A4600DAE1
:100CA000694206A800F0F2FB06AB93E8070003AB2D
:100CB00083E8070050460A9900F06FFC8DE80700B2
:100CC000A0F500501F3800900398002D0ADD42F275
:100CD0001F014A460844002303A90390684600F018
:100CE000D8FE09E0A0F500504A461F38002303A9AA
:100CF0000390684600F0E2FE8DE807000004000C57
:100D000003D04FF0FF30410800E01046B8F1000F6B
:100D100003D00022009215461EE0751E05D4FFF791
:100D2000C9FE303262556D1EF9D5B3460122084323
:100D300002D000227F1C04E02078302801D100225C
:100D40007F1E002A099784D01DE0112D07DAFFF7D6
:100D5000B1FE303262556D1C50EA0102F5D10843F4
:100D600002D00098C8B10EE00021681E05E0235CA7
:100D7000625C63542254401E491C8142F7DBAB463F
:100D8000A81B401E0990002004F80B000B98099A3C
:100D9000C0F80880C0E9002B7AE711264FF0000860
:100DA00057E72DE9F04F88460446D21D22F007018F
:100DB00091B0D1E90001CDE90A0101F034FD02460C
:100DC0000B98C00F01D02D2007E02068810701D5C6
:100DD0002B2002E0202101EAC000032A099001D063
:100DE000072A05DB03464146204600F00FFB0BE1D6
:100DF0002078800601D5E06900E00620B8F1650F93
:100E0000814606D0B8F1660F18D0B8F1670F70D1DF
:100E100031E00020B9F1110F009001DB112301E056
:100E200009F101030AAA01A90CA8FFF7E2FEDDE916
:100E30000C70002609F10105834647E001204B466E
:100E400000904FF000470AAA01A90CA8FFF7D1FEB5
:100E5000DDE90DB00C995D46002610B909F10100DD
:100E60000D18B9EB050003D4C0F1FF3609F10105F7
:100E7000A5EB09002BE0B9F1010F01DA4FF00109F0
:100E80000020B9F1110F0090484601DD112300E068
:100E900003460AAA01A90CA8FFF7ABFEDDE90C7016
:100EA0004D4600268346207800070AD4AB4500DA79
:100EB0005D4601A8012D04DD411911F8011C3029FE
:100EC00007D04F4502DA17F1040F04DA01208246F9
:100ED0000FE06D1EEEE7002F02DCED1B3E4403E049
:100EE000781CA84200DD7D1CB81B00F1010A4FF000
:100EF00000472078000703D4AA4501DB4FF0FF3AF2
:100F00000021B7F1004F0DF143088DF8431024D0B4
:100F100002202B23002F01DA7F422D230A21021EFB
:100F2000A0F1010000DC5FB197FBF1FC97FBF1F24F
:100F300001FB1C7C17460CF1300C08F801CDEEE7E4
:100F4000A8F1010003702188090501D5452100E0C1
:100F50006521A0F1010800F8011C09980FA9A1EB77
:100F60000807FF1D00B10120411901EBEA70A169DA
:100F70003844081A401EA0612078C00602D42046DA
:100F8000FFF7B3FA099828B1D4E901219047206A04
:100F9000401C20622078C00622D52046FFF7A5FA23
:100FA0001EE0002E04DBB34502DD01A8805D00E0F9
:100FB0003020D4E901219047206A401C2062761C31
:100FC000AAF101005FEA000A0AD100F019FAC0682C
:100FD0000168405CD4E901219047206A401C2062EE
:100FE000281EA5F10105DCDC07E0D4E9012118F891
:100FF000010B9047206A401C2062381EA7F10107B0
:10100000F3DC2046FFF787FA032011B041E6000029
:101010002DE9F04F04460D46D21D22F0070089B09D
:10102000D0E900974846394601F0FDFB0246F80F2B
:1010300001D02D2307E02068810701D52B2302E092
:10104000202101EAC0038DF820300BB1012000E01F
:101050000020032A824601D0072A04DB29462046C5
:1010600000F0D4F93FE12078800601D40D2500E09E
:10107000E569C7F30A560D2D49DA00214FEA175BDF
:1010800008464FF00000002F00F4400007DA00EBA4
:1010900080004FF4400100EBD07001EA6000811540
:1010A000012901DD4FF0FF3100224FEA850CBCF130
:1010B000180F06D31346ACF118004FF08052C2400F
:1010C00003E04FF4801323FA0CF30CF10C0CBCF189
:1010D000200F04D3ACF1200C09FA0CF001E007FA60
:1010E0000CF000294FF0004801DD18B90FE00ED1D7
:1010F00040450CD319EB02095F4121B9404502D1AB
:101100009F4329EA0209BBEB175F00D0761C2088B9
:10111000000502D57B48784402E07A4878441938C3
:1011200008AA302302F80A30037C0AF10101002EDC
:101130000AF1020A53546A4602DC4FF0300101E022
:101140004FF031014FF001088DF8001002D0A6F2E7
:10115000FF3603E059EA470100D06B4E002D02DC58
:101160002178090704D54FF002082E218DF80110CF
:10117000C44600210BE0C7F303433F01C35C491C95
:101180006D1E02F80830052908F1010801DA002D6A
:10119000F1DC00210CE000EB1973491C1B786D1E7B
:1011A000082902F808304FEA091908F1010801DAA4
:1011B000002DF0DC21688B0602D516E0A8F10108AD
:1011C000E04505DD02EB080313F8013C302BF5D0B8
:1011D000B8F1000F09DD02EB080313F8013C2E2BD8
:1011E00003D1090701D4A8F10108002D05DD3E2136
:1011F00002F808106D1E08F10108407C002E02F86C
:10120000080008F1010804DA2D20764202F80800EF
:1012100002E02B2002F808000A214FF47A7086427F
:1012200008F101080BDB96FBF0F3303302F80830CD
:1012300096FBF0F308F1010800FB136601E0642E51
:101240000CDB642096FBF0F3303302F8083096FB99
:10125000F0F308F1010800FB136601E00A2E06DB3B
:1012600096FBF1F0303002F8080008F1010896FB17
:10127000F1F001FB1060303002F80800A16908F1BC
:10128000010808EB050202EB0A00081AA0612078A9
:10129000C00602D42046FFF728F9216A08AE01EB08
:1012A0000A00206204E0D4E9012116F8010B9047FE
:1012B000BAF1010AF7D22078C00602D52046FFF71E
:1012C00014F96E4609E016F8010B3E280FD0D4E958
:1012D00001219047206A401C2062B8F10108F2D237
:1012E0002046FFF718F909B00320BDE8F08F206A07
:1012F0002844206203E0D4E90121302090476D1E8C
:10130000EBD3F8E75637000002FCFFFF10B5436946
:1013100013B1AFF3008001E0FFF720F9012010BD09
:10132000127800F124010A7000224A700122EDE7D0
:1013300011684FF0FF32E9E710B5436913B1AFF31D
:10134000008001E0FFF7A2F9012010BD128800F132
:10135000240182840022C2840122EDE711684FF04B
:10136000FF32E9E770B516460C46054600F040F836
:10137000036893F80101012806D0FF2C0FD8185DEF
:1013800068B101202C7070BDD3F8070132462146A8
:1013900003F2071303442846BDE8704018474FF096
:1013A000FF3070BD754600F0EDF8AE4605006946A9
:1013B000534620F00700854618B020B5FEF798FF89
:1013C000BDE820404FF000064FF000074FF0000846
:1013D0004FF0000B21F00701AC46ACE8C009ACE8C7
:1013E000C009ACE8C009ACE8C0098D4670470000F0
:1013F00010B500F005F8001D10BD00BFED33000072
:1014000010B500F0BFF8203010BD00002DE9F0410C
:101410001F46044603260168072A01F4006004DB26
:1014200008B116A505E016A503E008B115A500E072
:1014300015A521F010002060A069C01EA0610FB1A9
:10144000401EA0612046FFF750F84FB1D4E90121BA
:1014500038469047206A401C2062C01C206206E08B
:10146000206AFAE7D4E9012115F8010B9047761EAE
:10147000F8D22046FFF74FF8BDE8F0814E414E000C
:101480006E616E00494E4600696E66002DE9F047B8
:10149000814616468AB0354878440DC88DE80D005F
:1014A00032487844801C03AC0DC884E80D0041F636
:1014B0009B300844372190FBF1F290FBF1F5A5F148
:1014C000800501FB12041B3C02D56442012000E0B0
:1014D0000020DFF898A080460027FA44AAF1BE0A4F
:1014E0000EE0E0070AD03246684607EB47010123C9
:1014F0000AEB810100F0E2FA8DE8070064107F1C1E
:10150000002CEED1194F7F44AE3F19E0E80715D00B
:1015100007EB04100DF1180A90E80E008AE80E009F
:10152000C068F04201D1981908903246012306A9FB
:1015300003A800F0C3FA03AB83E807006D10641C36
:10154000002DE3D14FF0010332466946B8F1000F98
:1015500003A802D000F09DFA01E000F0AFFAC9E95B
:101560000001C9F808200AB0BDE8F0876434000023
:1015700010B50446AFF300802046BDE81040FEF7EA
:1015800056BE000000487047C831002001491820AD
:10159000ABBEFEE72600020070475FEA400C08BFC2
:1015A00091F0000F4FEA8C234FEAC12243EA5151D8
:1015B0004FEA1C5018BF00F5F0404FEA300018BF4A
:1015C00041F000415FEA6C5C00F02980BCF1FF3F14
:1015D00008BF40F080407047130C06BF12044FF064
:1015E000100C4FF0000C130E04BF12020CF1080C8B
:1015F000130F04BF12010CF1040C930F04BF9200EF
:101600000CF1020CD30F04BF52000CF1010C114677
:101610004FF00002A0F11F00A0EB0C00704711F08A
:10162000004F08BF704731F000413FF4D5AF0B0CBD
:1016300006BF09044FF0100C4FF0000C0B0E04BF56
:1016400009020CF1080C0B0F04BF09010CF1040C8A
:101650008B0F04BF89000CF1020CCB0F04BF4900B3
:101660000CF1010CCCF12003A0EB0C0022FA03F3E7
:1016700002FA0CF241EA030100F10100704720F088
:101680007F4C80EA030023F07F47ACEB070303F5B0
:101690007C5300F0004003F1FF032DE980494FEA3D
:1016A000154B09B44FEA144325EA0B4E24EA0348CC
:1016B0000FF2042606EB132749083E785FEA320250
:1016C00003FB0667C7F5000707FB06F64FEA54372A
:1016D0004FEAD64606F1020607FB066CCCF1005C29
:1016E0004FEA1C472CEA074C07FB06F40CFB06F5F7
:1016F00004EB15464FEA961634BF00204FF0004029
:101700004FEAD13706FB07FC4FEA1C4C0CFB0BF7EA
:10171000D21B03FB0CF761EB07010CFB0EF7B0EBE0
:10172000074072EB17420CFB08F734BFA2EB0742ED
:10173000B2EB074261EB17414FEA0C444FEA9107C5
:1017400006FB07FC4FEA1C4C0CFB0BF7B0EBC74049
:1017500072EB573203FB0CF734BFA2EBC742B2EB7C
:10176000C74261EB57310CFB0EF7B0EBC70072EBD1
:1017700057720CFB08F734BFA2EBC702B2EBC702EB
:1017800061EB5771039F4FEA816141EA921104EBCB
:10179000CC044FEAD1374FEA826206FB07FC42EAEB
:1017A00090124FEA80604FEA1C4C0CFB0BF7D21BE7
:1017B00003FB0CF761EB07010CFB0EF7B0EB0740E6
:1017C00072EB17420CFB08F734BFA2EB0742B2EBF7
:1017D000074261EB17414FEA8C554FEA910704EB42
:1017E0009C2406FB07FC4FEA1C4C0CFB0BF7B0EBF0
:1017F000C74072EB573203FB0CF734BFA2EBC74272
:10180000B2EBC74261EB57310CFB0EF7B0EBC700F0
:1018100072EB57720CFB08F734BFA2EBC702B2EBB6
:10182000C70261EB577115EB4C254FEA816141EA24
:1018300092114FEA82624FEAD13742EA901206FBD8
:1018400007FC44F100044FEA80604FEA1C4C0CFB9B
:101850000BF7D21B03FB0CF761EB07010CFB0EF738
:10186000B0EB074072EB17420CFB08F734BFA2EB5A
:101870000742B2EB074261EB174115EB1C154FEA2B
:10188000813141EA92414FEA823242EA90424FEA84
:1018900080304FEA0C7644F1000448EA03434EEAF4
:1018A0000B484FF0000EB2EB080C71EB030724BF9E
:1018B000624639464EEB0E0E4FF0000B00185241B7
:1018C00049414BEB0B0BB2EB080C71EB03077BF1BF
:1018D000000B24BF624639464EEB0E0E4FF0000B54
:1018E0000018524149414BEB0B0BB2EB080C71EB6A
:1018F00003077BF1000B24BF624639464EEB0E0E08
:1019000051EA020718BF46F0010616EB0E7655F1B4
:10191000000254F1000103D5BDE88901BDE800884B
:10192000BDE88901BDE80048B619524141EB01010B
:10193000A3F10103704780807F7E7D7C7B7A79787C
:10194000777676757473727171706F6E6E6D6C6C84
:101950006B6A6A6968686766666564646363626126
:101960006160605F5F5E5E5D5D5C5C5B5B5A5A59A7
:101970005958585757565655555554545353525213
:101980005251515050504F4F4F4E4E4D4D4D4C4C6B
:101990004C4B4B4B4A4A4A494949484848474747B4
:1019A00047464646454545444444444343434342F1
:1019B000424242414141002B9C4630D477002BD01B
:1019C0001CB54FEA370703B44FF010004FF0100179
:1019D000BAF1000F06D0BCF1000FDCBF40F00800E8
:1019E00040F008014FF000000FBCBDE810400BF1C3
:1019F000010BBBF1010F08BF5FEA170722BF12F10D
:101A0000010211F101014FF0004143F1000300F028
:101A1000004043EA00007047F9D35708D0E746EA90
:101A2000064613F1400F4FEA16461FDD13F1200F53
:101A3000DFBF16430A46002120335B42BED0C3F10C
:101A4000200746EA064602FA07F74FEA164646EA34
:101A50000706C3F1200722FA03F201FA07F721FA79
:101A600003F14FF0000342EA0702A7E746EA020645
:101A700046EA06464FEA164646EA0106BCBF46EA73
:101A80000646360C4FF000034FF000024FF0000105
:101A900094E72DE9804C9A46934670B491E838005B
:101AA00007C831EA400C48BF34EA430C03D5FFF7BE
:101AB000E6FDFFF780FFF0BCBDE8008C2DE9804C0F
:101AC0009A46934670B491E8380007C810F0804FEA
:101AD00008BF13F0804F03D100F005F8FFF76BFF4C
:101AE000F0BCBDE8008C20F07F4780EA030023F0C3
:101AF0007F4C07EB0C03A3F57C5300F00040A3F1EF
:101B0000FE0392F0000F00F0B38095F0000F00F09C
:101B100077802DE901494FEA11404FEA144621EA46
:101B2000004800FB06FC24EA064708FB06F607FB14
:101B300008F800FB07F718EB06484CEB164C4FEA89
:101B4000124B18EB07484FEA15464CEB174022EAB8
:101B50000B4E0BFB06FC25EA06470EFB06F607FBC1
:101B60000EFE0BFB07F71EEB064E4CEB164C4FF030
:101B700000061EEB074E4CEB174B18EB0B0840F121
:101B8000000018EB0E0B58EB000840F100008F1A14
:101B90004FF000013CBFC943661B14BFB5EB040CFA
:101BA00000213CBFC943F61B4FEA17444EEA8E0E94
:101BB00027EA04454FEA1C4704FB07622CEA074C5E
:101BC00005FB07F70CFB05F604FB0CFC16EB0746C0
:101BD00042EB174216EB0C4642EB1C421BEB06068F
:101BE00058EB0202414146EA9E0601D5BDE8018953
:101BF000B619524141EB0101A3F10103BDE801898E
:101C00004FEA14454FEA114724EA054621EA074CFA
:101C100005FB07F406FB07F70CFB06F105FB0CFCC4
:101C200011EB074144EB17444FEA124711EB0C410B
:101C300044EB1C4422EA074C05FB07F206FB07F7BE
:101C40000CFB06F605FB0CFC16EB074642EB1742B5
:101C500016EB0C4642EB1C456A1854F1000148BFD4
:101C60007047B619524141EB0101A3F101037047DE
:101C700095F0000F37D04FEA11424FEA144721EA9E
:101C8000024624EA074C02FB07F106FB07F70CFBB0
:101C900006F402FB0CFC14EB074441EB17414FEA3E
:101CA000154714EB0C4441EB1C4125EA074C02FBA1
:101CB00007F506FB07F70CFB06F602FB0CFC16EB20
:101CC000074645EB174516EB0C4645EB1C4212192F
:101CD00051F1000148BF7047B619524141EB010173
:101CE000A3F1010370474FEA14454FEA114724EA74
:101CF000054621EA074C05FB07F106FB07F70CFB3D
:101D000006F24FF0000605FB0CFC12EB074241EB1C
:101D1000174112EB0C4251EB1C4148BF704792181F
:101D200041EB0101A3F1010370472DE9F0410246A7
:101D300000250026002000230024002791F803C07E
:101D40000CF00F0591F803C00CF0100CBCF1000F63
:101D500003D091F802C04CEA050591F800C0BCF12F
:101D6000000F31D0146800202BE04FF0010C0CFA6A
:101D700000F3B1F800C00CEA03069E4220D18300B4
:101D80004FF00F0C0CFA03F7BC4305FA03FC4CEAC6
:101D9000040491F803C0BCF1280F06D14FF0010CE8
:101DA0000CFA00FCC2F814C00AE091F803C0BCF1C0
:101DB000480F05D14FF0010C0CFA00FCC2F810C01E
:101DC000401C0828D1D31460B1F800C0BCF1FF0F4B
:101DD00034DD546800202EE000F1080C4FF00108BB
:101DE00008FA0CF3B1F800C00CEA03069E4221D1B8
:101DF00083004FF00F0C0CFA03F7BC4305FA03FC09
:101E00004CEA040491F803C0BCF1280F05D100F19D
:101E1000080C08FA0CF8C2F8148091F803C0BCF161
:101E2000480F07D100F1080C4FF0010808FA0CF830
:101E3000C2F81080401C0828CED35460BDE8F08161
:101E40000AB1016100E041617047000008B501215D
:101E5000102000F021F84FF40050ADF800001020E1
:101E60008DF8030003208DF8020069460148FFF752
:101E70005CFF08BD0010014029B1064AD269024347
:101E8000044BDA6104E0034AD2698243014BDA6110
:101E9000704700000010024029B1064A92690243CF
:101EA000044B9A6104E0034A92698243014B9A61B0
:101EB000704700000010024030B5002100220024CD
:101EC00000232D4D6D6805F00C0121B1042905D0CA
:101ED000082923D105E0294D056022E0274D056042
:101EE0001FE0254D6D6805F47012234D6D6805F4F3
:101EF0008034022505EB92421CB9214D5543056003
:101F00000BE01D4D6D6805F400351DB11C4D5543AA
:101F1000056002E0194D5543056002E0174D05606C
:101F200000BF00BF144D6D6805F0F0010909154DA3
:101F30006B5C0568DD4045600F4D6D6805F4E06140
:101F4000090A104D6B5C4568DD4085600A4D6D687F
:101F500005F46051C90A0B4D6B5C4568DD40C560F6
:101F6000054D6D6805F44041890B074D6B5CC568F4
:101F7000B5FBF3F5056130BD0010024000127A0098
:101F800000093D002C0000203C0000201CB5012071
:101F900001F02AFE15490860002220210A2001F0E4
:101FA00049FE13490860002220210A2001F042FE68
:101FB0001049086001F026FD0F490860002001214A
:101FC00003468022CDE900100CA10E4802F0A0F8D3
:101FD0000020012103468022CDE900100AA10C480F
:101FE00002F096F801F060FC1CBD00000800002023
:101FF00000000020040000200C0000204C6564322A
:102000000000000015200008555341525400000004
:102010007D20000808B500BF2CE00A200023012223
:10202000114600901448006801F044FD06460A205D
:1020300000230122022100900F48006801F03AFDC0
:1020400005460A2000230122042100900A48006866
:1020500001F030FD044606F0010008B100F018F967
:1020600005F0020008B100F023F904F0040008B103
:1020700000F030F9D1E700000C00002004E000F08F
:1020800039F9642001F0C0FAF9E710B500F002F860
:1020900010BD00000CB5002001900090334800688E
:1020A00040F480303149086000BF3048006800F4D7
:1020B000003000900198401C0190009818B90198D8
:1020C000B0F5A06FF1D12948006800F4003010B1DC
:1020D0000120009001E0002000900098012843D1E9
:1020E0002348006840F01000214908600846006855
:1020F00020F0030008600846006840F00200086015
:102100001A484068194948600846406848600846CF
:10211000406840F4806048600846406820F47C10C5
:1021200048600846406840F4E81048600846006887
:1021300040F08070086000BF0C48006800F000703C
:102140000028F9D00948406820F00300074948609A
:102150000846406840F00200486000BF03484068FD
:1021600000F00C000828F9D10CBD0000001002405E
:102170000020024010B54FF0E020006902F02AF87C
:10218000012801D001F016FD10BD000010B500219E
:1021900000200022214B5B6803F00C0121B10429CF
:1021A00006D0082928D107E01D4B1E4C236027E0EC
:1021B0001B4B1C4C236023E0184B5B6803F470102E
:1021C000164B5B6803F48032022303EB904022B984
:1021D000154B4343134C23600DE0104B5B6803F435
:1021E000003323B1104B43430E4C236003E00C4BF0
:1021F00043430C4C236003E0094B0A4C236000BFAF
:1022000000BF064B5B68C3F30313084CE15C054B4E
:102210001B68CB40034C236010BD0000001002403F
:1022200000127A004000002000093D004400002018
:1022300010B51348006840F00100114908600846D5
:102240004068104908400E494860084600680E4939
:1022500008400B4908600846006820F480200860A8
:102260000846406820F4FE0048604FF41F00886074
:10227000FFF70BFF4FF000600449086010BD00003D
:10228000001002400000FFF8FFFFF6FE08ED00E03E
:1022900010B504A000F08EFA012251030348FFF7A5
:1022A000CFFD10BD4C6564310A00000000100140F4
:1022B00010B505A000F07EFA00224FF4005104484A
:1022C000FFF7BEFD10BD00004C6564320A0000003F
:1022D0000010014010B504A000F06CFA0122510377
:1022E0000348FFF7ADFD10BD4C6564330A000000E4
:1022F0000010014010B500F087F901281FD110A08F
:1023000000F0D4F8012805D101210F48006801F040
:1023100088FB14E00DA000F0C9F8012805D10221C6
:102320000948006801F07DFB09E00AA000F0BEF852
:10233000012804D104210448006801F072FB10BD9B
:1023400073657431000000000C0000207365743266
:1023500000000000736574330000000010B540F207
:102360002551134800F06BF900B3114800F034FA1E
:1023700010490870084600780A280BD008460078F3
:102380000D490E4A126888540C480068401C0B49DD
:1023900008600BE001200A49086000210748006836
:1023A000401E054A115400200449086010BD000079
:1023B0000038014018000020C80000202000002044
:1023C0002400002010B540F22551134800F037F9E1
:1023D00000B3114800F000FA104908700846007870
:1023E0000A280BD0084600780D490E4A1268885416
:1023F0000C480068401C0B4908600BE001200A49AA
:102400000860002107480068401E054A115400205A
:102410000449086010BD000000440040180000207E
:10242000C8000020200000202400002010B540F249
:102430002551134800F003F900B3114800F0CCF91E
:1024400010490870084600780A280BD00846007822
:102450000D490E4A126888540C480068401C0B490C
:1024600008600BE001200A49086000210748006865
:10247000401E054A115400200449086010BD0000A8
:102480000048004018000020C80000202000002064
:102490002400002021B1828942F40052828104E0AC
:1024A00082894DF6FF731A408281704770B50446E9
:1024B000012504492046FDF7D5FF00B10025284637
:1024C00070BD0000C800002010B586B00446454825
:1024D0000068454988420FD1012144F20400FFF70A
:1024E000DBFC4FF4007041490880400040490880FF
:1024F0004048414908602DE03A4800683F49884219
:1025000011D101210420FFF7C7FC01214804FFF786
:10251000B3FC042035490880082035490880354837
:102520003549086016E02F4800683549884211D1C6
:1025300001210820FFF7B0FC01218804FFF79CFC73
:102540004FF48060294908804000294908802D48BF
:102550002949086018208DF8170024480088ADF834
:10256000140003208DF8160005A923480068FFF722
:10257000DCFB04208DF817001D480088ADF814001E
:1025800003208DF8160005A91B480068FFF7CDFB56
:1025900001940020ADF810000C20ADF80E000020D2
:1025A000ADF80C00ADF80A00ADF8080001A90D481F
:1025B000006800F093F8012240F2255109480068B4
:1025C00000F067F8252000F042F9262000F03FF9DE
:1025D000272000F03CF9012102480068FFF75AFF6C
:1025E00006B010BD14000020003801402800002073
:1025F0002A00002000080140100000200044004094
:1026000000480040000C014005480068012804D142
:10261000002003490860012070470020FCE700000B
:102620002400002002460020B1F5007F00D100BF49
:1026300013880B400BB1012000E00020704770B5FB
:102640000246002400230025002040F66A16B1420D
:1026500000D100BFC1F3421501F01F03012606FAA5
:1026600003F3012D02D19689334006E0022D02D1F9
:10267000168A334001E0968A33400C12012606FA8E
:1026800004F41688344013B10CB1012000E000209E
:1026900070BDF0B50346002400260025002040F65A
:1026A0006A17B94200D100BF1846C1F3421401F0C5
:1026B0001F06012707FA06F5012C01D10C3004E0B2
:1026C000022C01D1103000E014301AB107682F43FA
:1026D000076002E00768AF430760F0BD2DE9F047EF
:1026E00086B005460E460024A24600BFA14600273C
:1026F000B08900B100BF2F462C8A4CF6FF70044011
:10270000F08804432C82AC894EF6F3100440B08864
:1027100031890843718908430443AC81AC8A4FF680
:10272000FF400440B0890443AC8201A8FFF7C4FB1A
:102730001F48874202D1DDF810A001E0DDF80CA0AF
:10274000A88900F4004040B10AEBCA0000EB0A106F
:1027500031684900B0FBF1F807E00AEBCA0000EB72
:102760000A1031688900B0FBF1F86420B8FBF0F082
:1027700004012009642101FB1089A88900F40040AC
:1027800040B1322000EBC900B0FBF1F000F00700CF
:10279000044308E0322000EB09106421B0FBF1F0A3
:1027A00000F00F0004432C8106B0BDE8F087000064
:1027B000003801400FB400B59BB01DA8019002A8DD
:1027C000019A1C99FDF7A6FD0020019002A800F0D7
:1027D0001FF81BB05DF814FB01468888C0F30800A1
:1027E0007047000010B5044621460648006800F016
:1027F0000BF800BF802103480068FFF713FF002893
:10280000F8D010BD14000020C1F308028280704788
:1028100010B5044603E014F8010BFFF7E3FF20783E
:102820000028F8D110BD490050EAC12018BF04208B
:102830004A0D18BF40F0010040F2FF72B2EB515F49
:1028400008BF40F00200012808BF0520704700289B
:102850000DDB00BF00BF00F01F02012191404209C3
:10286000920002F1E022C2F8001100BF00BF7047E1
:1028700030380A2801D2012070470020704710B577
:10288000044600F082F838B100F068F820B14FF04B
:10289000FF31206801F074FB10BD000070B50546E3
:1028A000286800F081FE00240BE0084951F824104C
:1028B0002868884204D10020044941F8240002E03D
:1028C000641C052CF1D300BF70BD0000300800204F
:1028D00070B5044600202060002514E0154850F82B
:1028E000250078B905EB8500134A02EB00110120A1
:1028F00001F08BF90F4941F82500084650F82500F2
:10290000206002E06D1C052DE8D300BF206830B9BF
:1029100000F03BF818B1012001F066F920600020BA
:1029200080F3118800BF206808B9002070BD012025
:10293000FCE7000030080020A006002010B5044687
:1029400000F023F840B100F009F828B100231A463E
:102950001946206801F006FA10BD704700BFEFF37A
:10296000058008B9012070470020FCE710B5FFF78B
:102970005FFCFFF70BFC4FF41650FFF7A5FDFFF7C8
:1029800065FAFFF703FB002010BD10B501F022FC33
:10299000022801D1012010BD0020FCE72DE9F04103
:1029A00005460E462048076820480068001D00F0D4
:1029B00039FD681CD8B9D6B11D4948681B4909685A
:1029C00088601A4982680968CA6018490968091D3F
:1029D0008268516015490968091D8160144A1349CC
:1029E00009684A6111460968491C11601AE07C199E
:1029F0000E4800684460BC4207D20C480168091DBB
:102A00000C48006800F059FD0CE008480168091DF9
:102A10000948006800F051FD08480068844201D26E
:102A200006480460BDE8F0818800002074000020A2
:102A3000EC3000207C00002078000020A400002062
:102A400010B5044600F054FD30480068401C2F4982
:102A500008602F48006840B92D48046008460068A7
:102A600001280DD100F0ECF90AE02A48006838B9D5
:102A700027480068C06AE16A884201D82448046097
:102A800025480068401C24490860084600686064C6
:102A90002249E06A0968884202D92049E06A086050
:102AA000E16A01EB81011E4A02EB81014868A060E6
:102AB0008268E260211D826851608160E16A01EBF9
:102AC0008101174A02EB81026261E16A01EB810137
:102AD000134A52F82110491CE26A02EB8202104BA1
:102AE00043F8221000F016FD0A48006868B1084853
:102AF0000068C06AE16A884207D24FF080500949F5
:102B00000860BFF34F8FBFF36F8F10BD84000020AC
:102B10007400002090000020A00000208C00002005
:102B20003C2C002004ED00E008B500F0E1FC0E486C
:102B30000068A8B90D4800F0B0FC0D4800F0ADFCED
:102B40000A480C4908600A480B49086000200B4BF2
:102B50000B4A10210090052001F095F80249086009
:102B600000F0D8FC08BD0000BC00002000310020AF
:102B700014310020B4000020B800002028310020CB
:102B80007831002010B516E000F0B2FC0C48C068A7
:102B9000C468201D00F046FC0A480068401E094930
:102BA000086009480068401E0749086000F0B2FC50
:102BB000204600F05FF8044800680028E4D110BD0A
:102BC000D8300020840000208000002070B504462A
:102BD0000D46206C70B1216CE0680144E160D4E9DD
:102BE0000210884201D32168E1602846226CE16826
:102BF000FDF7A2FB70BD2DE9F04104460F461546D6
:102C00004FF00008A66B206C48B9206800282CD132
:102C1000A06801F0BDFB80460020A06025E07DB9E2
:102C20003946226C6068FDF787FB216C60680844B8
:102C30006060D4E90101884217D32068606014E025
:102C40003946226CE068FDF777FB216CE068411A99
:102C5000E1602168E068884203D2216CA068411AD3
:102C6000E160022D01D106B1761E701CA0634046C2
:102C7000BDE8F08110B5044694F8590030B9206BD6
:102C800000F058FC204600F055FC06E094F859008E
:102C9000012802D1204600F04DFC10BD01464A6AD1
:102CA00022B10A6B1268C2F1380000E000207047C0
:102CB0000146084A126812680AB9012200E000229F
:102CC0000A600A6822B9034A1268D268106800E0F4
:102CD00000207047B400002030B54FF40053154871
:102CE00000F007042CB1C01D20F00700114C041B9C
:102CF0001B1B0246104C226000240F4D6C60D01844
:102D0000083820F007000D4C206000240B4D2D6882
:102D10006C600A4D2D682C601146441A4C60074CBB
:102D200024680C60064D4C682C60064D4C682C6085
:102D300030BD00003C0C0020540000205C0000204E
:102D4000640000206000002000BFFFF71BFF064862
:102D500000680128F9D94FF0805004490860BFF39A
:102D60004F8FBFF36F8FF0E73C2C002004ED00E0A5
:102D700010B5044654B10020A06020600021E1603D
:102D800000231A461946204600F0ECFF10BD2DE93D
:102D9000F04106460D4617469846069C0DB924603C
:102DA00000E02760E66325640121204600F08AFFE9
:102DB00084F84C80BDE8F0812DE9F05F81460E4635
:102DC00090469A460A9F0C9C4FEA8801A522206BE8
:102DD000FDF7F7FAA8F10100216B01EB800B2BF056
:102DE000070B7EB1002507E0715D04F13400415509
:102DF000705D00B902E06D1C102DF5D300BF0021FD
:102E000043200155382F00D33727E762E764201DA0
:102E100000F050FB04F1180000F04CFB2461C7F1F6
:102E20003800A061646252464946584600F0E8FA0C
:102E300020600B9808B10B980460BDE8F09F00007B
:102E400010B5002407E004EB84010F4A02EB810077
:102E500000F023FB641C382CF5D30C4800F01DFB5C
:102E60000B4800F01AFB0B4800F017FB0A4800F073
:102E700014FB0A4800F011FB0448094908600448A3
:102E80000849086010BD00003C2C00209C30002048
:102E9000B0300020C4300020D8300020EC300020BA
:102EA000780000207C00002010B50146164800E0A4
:102EB000006803688B42FBD30246436813448B428D
:102EC00004D143684C682344436001460A464B687A
:102ED00013440468A34211D10C4C03682468A34234
:102EE00008D04B680468646823444B6003681B681F
:102EF0000B6005E0054B1B680B6001E003680B608D
:102F0000884200D0016010BD540000205C00002009
:102F10002DE9F04104460D4616461F464FF00008C5
:102F200065602461B5420CD8F01BA169884202D3C8
:102F30004FF0010811E0211D0948006800F0BDFABA
:102F40000BE0BE4204D2BD4202D34FF0010804E0C0
:102F5000211D0448006800F0B0FA4046BDE8F08149
:102F6000B8000020B400002070B5054600F0C0FA9B
:102F7000A86B08B9012400E0002400F0CBFA204639
:102F800070BD70B5054600F0B3FAA86BE96B8842D6
:102F900001D1012400E0002400F0BCFA204670BDFD
:102FA00070B505460E460E480068C068C468201D0E
:102FB00000F038FA94F8280000F0040028B13246F6
:102FC0002946204600F0D0F805E094F8280000F0EB
:102FD000FE0084F828002046216A884770BD000062
:102FE000B400002070B586B077E00298002805DABA
:102FF00003AED6E90020B168904700BF02980028D0
:103000006BDB049C606908B9012000E0002010B966
:10301000201D00F007FA01A800F0D2F8054602983A
:103020000A2858D2DFE800F05705072E3647060871
:103030002F3700BF00BF00BF94F8280040F0010008
:1030400084F828000398A269811803462A4620467E
:10305000FFF75EFFA8B194F8280000F0040038B133
:103060000398A26981182A46204600F07DF805E001
:1030700094F8280000F0FE0084F828002046216A19
:10308000884729E000BF94F8280000F0FE0084F88B
:10309000280021E000BF94F8280040F0010084F8E7
:1030A00028000398A061A06941192B462A462046B2
:1030B000FFF72EFF10E094F8280000F0020018B986
:1030C000204600F037FA05E094F8280000F0FE00F2
:1030D00084F8280000E000BF00BF002202A90448D5
:1030E000006800F0CBFE00287FF47FAF06B070BD13
:1030F000BC000020F8B505460C4600F023FC6846ED
:1031000000F05EF80646009820BB44B9B54206D8E8
:1031100001F078FA31462846FFF742FF1CE03CB147
:103120000E480068006808B9012000E0002004464D
:10313000A91B22460A48006800F040FA01F062FA32
:1031400050B94FF0805007490860BFF34F8FBFF36D
:103150006F8F01E001F056FAF8BD0000B8000020C2
:10316000BC00002004ED00E070B504460D46164694
:1031700004E0A06905442046216A8847A0694119F6
:103180002B4632462046FFF7C3FE0028F1D170BD22
:1031900009480068006808B9012000E0002020B15B
:1031A0004FF0FF300549086005E003480068C0683B
:1031B000006802490860704778000020A4000020E1
:1031C00070B5044601F016F80546074800688542C8
:1031D00004D200F00BF80120206001E00020206004
:1031E00001480560284670BDC400002070B508E0A5
:1031F0000D480068C06804684FF0FF312046FFF7B3
:10320000CFFE09480068006808B9012000E00020EE
:103210000028EDD0044805680448006802490860A9
:103220000248056070BD0000B4000020B800002016
:1032300000BF102080F31188BFF34F8FBFF36F8F53
:1032400000BF00BFFEE710B50346002022B903EA25
:10325000010434B1012004E003EA01048C4200D1EE
:10326000012010BD08B500BF6846FFF721FD0446E8
:1032700020460099FFF73EFFFFF7B4FEF4E770B574
:10328000044600F035F994F9455010E0606A08B939
:10329000012000E0002038B904F1240001F02EF9EB
:1032A00018B100F0D7F900E003E0681E45B2002D28
:1032B000ECDC00BFFF2084F8450000F02BF900F0A3
:1032C00017F994F9445010E0206908B9012000E092
:1032D000002048B904F1100001F010F908B100F025
:1032E000B9F9681E45B200E001E0002DECDC00BF3A
:1032F000FF2084F8440000F00DF970BD2DE9F0477F
:1033000005464FF0000900F01DFB3048006808B981
:10331000FFF7E2FC75B105F00700C0F11008C8F135
:10332000FF30A84201D2012000E0002008B9454446
:1033300000E00025012000EBE570002841D0002DC1
:103340003FD02348006885423BD8224E304604686F
:1033500001E0264624686068A84202D2206800285E
:10336000F7D11A48006884422BD0306800F1080970
:10337000206830606068401B102807D967196068B2
:10338000401B786065603846FFF78EFD1049606825
:103390000968081A0E490860084600680E4909685D
:1033A000884203D20A4800680B490860606840F010
:1033B000004060600020206008480068401C074909
:1033C000086001F01FF94846BDE8F0875C00002066
:1033D00060000020540000206400002068000020ED
:1033E0000648006830B10549096801F15000096DCF
:1033F000491C01600148006870470000740000200B
:10340000001F4FF080730360001F21F00103036071
:10341000001F034B0360143802602038704700001F
:103420003132000801460A69D1E901309860D1E9DA
:10343000010358605068884201D1886850600020BC
:1034400008611068401E10601068704705490968DF
:10345000886904490968C96AC1F13801014A1268DA
:103460009161704774000020034B0360034B0B60B5
:10347000802313607047000044080020A00800204B
:10348000034B0360034B0B60502313607047000035
:10349000A00A0020FC0A0020704700F108014160EA
:1034A0004FF0FF31816000F10801C160016100212E
:1034B0000160704700210161704710B502460B683A
:1034C0005C1C0CB9106907E002F1080000E04068DC
:1034D000446824689C42FAD944684C604C68A160F6
:1034E000886041600A611468641C146010BD0000AB
:1034F00000BF102080F31188BFF34F8FBFF36F8F91
:1035000000BF03480068401C014908607047000084
:103510007000002006480068401E05490860084603
:10352000006820B9002080F3118800BF00BF7047F9
:103530007000002070B506463546E6B1083D2C46C1
:103540006068C00FB8B12068A8B9606820F000407A
:10355000606000F0F7F908496068096808440649A6
:1035600008602046FFF7A0FC04480068401C03499F
:10357000086001F047F870BD600000206C0000207A
:1035800000204FF0E02108618861064800684FF490
:103590007A71B0FBF1F0401E4FF0E0214861072046
:1035A000086170474000002070B50446254695F834
:1035B000460010B92846FFF7BDFF70BD2DE9F04168
:1035C00005460E4617462C46FFF792FF94F9440035
:1035D000401C10B9002084F8440094F94500401CB8
:1035E00010B9002084F84500FFF794FFA06B28B9BC
:1035F0003A46314604F1240000F042F82046FFF735
:103600003EFEBDE8F081000070B50446002544B1DF
:1036100000F098F900212046FFF7C0F900F0F2FF12
:1036200005463DB94FF0805003490860BFF34F8F06
:10363000BFF36F8F70BD000004ED00E0034909681F
:103640000160034909684160704700009C00002048
:103650008800002001200149086070479800002080
:1036600070B505460C460548016818312846FFF735
:1036700024FF01212046FFF791F970BD740000205E
:1036800070B504460E46154660680F490968C86162
:103690000D49826809680A620B4909681831826815
:1036A00051600949096818318160074909688C62CD
:1036B0002168491C21600DB14FF0FF362946304684
:1036C000FFF76CF970BD00007400002070B504466F
:1036D0000D46164645F000400F490968886160684C
:1036E0000D490968C8610C49826809680A620A497B
:1036F000096818318268516007490968183181608A
:10370000054909688C622168491C21600121304605
:10371000FFF744F970BD0000740000202DE9F04768
:1037200006460F4634464FF00109002E4FD0E06C9C
:10373000B84201D23D4600E0E56CE06AA84246D0BE
:10374000206D012843D1D4F82C80E562A06900F0F7
:10375000004010B9C5F13800A06108EB88011D4A8E
:1037600002EB81016069884201D1012000E0002064
:1037700068B3201DFFF756FE1749E06A09688842C2
:1037800002D91549E06A0860E16A01EB8101114A3A
:1037900002EB81014868A0608268E260211D8268B6
:1037A00051608160E16A01EB81010A4A02EB81020A
:1037B0006261E16A01EB8101064A52F82110491C5D
:1037C000E26A02EB8202034B43F8221000BFBDE81D
:1037D000F08700003C2C00208C00002070B50246D1
:1037E0000B4643F000411160D0681169D2E90154E1
:1037F000AC60D2E901456C604C68944201D1946898
:103800004C60002414610C68641E0C604169D0E9AE
:103810000245A560D0E902546560041D4D68A542CB
:1038200001D1C4684C60002545610C68641E0C60C1
:10383000194CC16A2468A14202D9174CC16A21609F
:10384000C46A04EB8404154D05EB8404616881604F
:103850008D68C560041D8D686C608C60C46A04EB63
:1038600084040E4D05EB84054561C46A04EB8404B1
:103870000A4D55F82440641CC56A05EB8505074EC2
:1038800046F82540064CC16A2468E46AA14202D980
:103890000121044C216070BD8C0000203C2C0020D4
:1038A000740000209800002010B586B0002005901C
:1038B000049003AA04A905A8FFF7D6FD0022DDE9BC
:1038C00004101346CDE90021029016A11748039A6F
:1038D00000F054FC164908600846006808B101244D
:1038E00000E00024012C02D100F038FF0446012C36
:1038F00014D100BF102080F31188BFF34F8FBFF3A6
:103900006F8F00BF4FF0FF300A49086001200A495D
:10391000086000200949086000F032F90848006892
:1039200006B010BD49444C4500000000492D000878
:10393000A8000020A40000209000002088000020A3
:10394000AC00002002480068401C01490860704734
:10395000B000002070B52648006818B10120254944
:10396000086043E000202349086023480068046B96
:103970004FF0A5352068B0F1A53F0BD16068B0F1DC
:10398000A53F07D1A068B0F1A53F03D1E068B0F131
:10399000A53F05D01848016834310068FFF77CFD69
:1039A0001648016800E0491E01EB8100144A52F8F4
:1039B000200008B9012000E000200028F3D101EB2D
:1039C00081020F4B03EB820042685268426000F1B3
:1039D00008024368934202D14268526842604268DA
:1039E000D268054B1A600548016000BF70BD000039
:1039F000B000002098000020740000208C000020FF
:103A00003C2C002010B52020FFF778FC044634B190
:103A100000202060201DFFF740FD00202077204679
:103A200010BD2DE9FE4F0646894600200190344620
:103A3000009004F1040B0BF108000290FFF782FFE5
:103A4000DBF80C70206840EA0900206026E0D7F817
:103A500004A03D680020009005F07F4825F07F45D8
:103A600008F0806028B92068284040B1012000900B
:103A700005E020682840A84201D10120009000986C
:103A800058B108F0807010B1019828430190206867
:103A900040F000713846FFF7A1FE57460298874272
:103AA000D5D1206801998843206000F0ABFD2068E3
:103AB000BDE8FE8F2DE9FF5F80460E46174699460A
:103AC000DDF838A044464FF0000B00200190FFF7CE
:103AD00039FF206800904A4631460098FFF7B3FB53
:103AE0000390039830B1009DDA46CFB12068B0430F
:103AF000206015E0BAF1000F03D1009D0120019074
:103B00000EE00FB14BF0807BB9F1000F01D04BF00C
:103B1000806B46EA0B015246201DFFF7D7FD0025BA
:103B200000F070FD0290BAF1000F22D0029838B96F
:103B30004FF0805011490860BFF34F8FBFF36F8F74
:103B4000FFF784FC054605F0007080B9FFF7D0FC54
:103B500025684A4631462846FFF775FB18B117B16C
:103B60002068B043206001200190FFF7D3FC25F0CE
:103B70007F45284604B0BDE8F09F000004ED00E05A
:103B800010B50A48006840F47F00084908600846FC
:103B9000006840F07F400860FFF7F2FC0020044915
:103BA0000860FCF75DFB002010BD000020ED00E088
:103BB0007000002010B500BF102080F31188BFF303
:103BC0004F8FBFF36F8F00BF00F01AFB18B14FF09B
:103BD00080500449086000BF002080F3118800BFB6
:103BE00010BD000004ED00E02DE9F041044601267F
:103BF000002722460021012000F01CF80546284637
:103C0000FFF7B6F82846BDE8F0812DE9F8430446F1
:103C10000D4601274FF000082B46002211460120D7
:103C2000009400F030F806463046FFF7A1F8304621
:103C3000BDE8F8832DE9F84305460E4617460024F3
:103C4000F5B1601EB0FBF5F0B04219D305FB06F0EC
:103C500010F1510F14D805FB06F909F15000FFF7D8
:103C60004DFB044664B1A04608F15008002084F8DA
:103C700046003B464246314628460094FFF787F807
:103C80002046BDE8F8832DE9F84380460D461646E8
:103C90001C46DDF820900027B8F1000F0FD074B15A
:103CA00006B165B106B955B92746012087F8460027
:103CB0004B463246294640460097FFF768F838469B
:103CC000BDE8F8832DE9F04105460E4601272C4654
:103CD000002C41D0E06B00283ED0B91EE06BB1FB58
:103CE000F0F0216C884237D3FFF702FCD4E90F12C1
:103CF000206801FB0200A0600020A06320686060D3
:103D0000E06B401E226C216800FB0211E160FF2085
:103D100084F8440084F845009EB9206908B9012060
:103D200000E00020A8B904F1100000F0E7FB80B12A
:103D30004FF080500A490860BFF34F8FBFF36F8F79
:103D400007E004F11000FFF7A8FB04F12400FFF7DF
:103D5000A4FBFFF7DFFB00E000273846BDE8F08159
:103D600004ED00E02DE9FF4383B0074688461D4679
:103D70004FF000093C4600BFFFF7BAFBA06BE16BB8
:103D8000884201D3022D28D12A4641462046FEF71B
:103D900032FF0646606A08B9012000E0002068B9D9
:103DA00004F1240000F0AAFB88B14FF080503249A2
:103DB0000860BFF34F8FBFF36F8F08E03EB14FF045
:103DC00080502D490860BFF34F8FBFF36F8FFFF70F
:103DD000A1FB012007B0BDE8F083059818B9FFF7F3
:103DE00099FB0020F6E7B9F1000F04D101A8FFF715
:103DF00025FC4FF00109FFF78DFBFFF7A3FDFFF74F
:103E000077FB94F94400401C10B9002084F844006A
:103E100094F94500401C10B9002084F84500FFF7D4
:103E200079FB05A901A800F043F9F0B92046FFF796
:103E3000A8F8A0B104F110000599FFF711FC204685
:103E4000FFF71DFA00F0DEFB002895D14FF08050FF
:103E500009490860BFF34F8FBFF36F8F8CE720468F
:103E6000FFF70DFA00F0CEFB86E72046FFF707FAD2
:103E700000F0C8FB0020ADE704ED00E02DE9F741BC
:103E800083B005460F464FF000082C4600BFFFF7F1
:103E90002FFBA66BF6B139462046FEF797FE701E43
:103EA000A063206908B9012000E0002060B904F196
:103EB000100000F023FB38B14FF080502F4908600C
:103EC000BFF34F8FBFF36F8FFFF724FB012006B0C6
:103ED000BDE8F081059818B9FFF71CFB0020F6E754
:103EE000B8F1000F04D101A8FFF7A8FB4FF00108BB
:103EF000FFF710FBFFF726FDFFF7FAFA94F94400ED
:103F0000401C10B9002084F8440094F94500401C7E
:103F100010B9002084F84500FFF7FCFA05A901A8B4
:103F200000F0C6F8F0B92046FFF71EF8A0B104F182
:103F300024000599FFF794FB2046FFF7A0F900F055
:103F400061FB0028A3D14FF080500C490860BFF3FB
:103F50004F8FBFF36F8F9AE72046FFF790F900F07D
:103F600051FB94E72046FFF78AF900F04BFB20460F
:103F7000FEF7FAFF00288AD00020A8E704ED00E051
:103F80002DE9F34182B0054600272C46B84600BF14
:103F9000FFF7AEFAA66BFEB1701EA063206810B9E1
:103FA000FFF71EFAA060206908B9012000E0002098
:103FB00060B904F1100000F0A1FA38B14FF0805060
:103FC0003A490860BFF34F8FBFF36F8FFFF7A2FA34
:103FD000012004B0BDE8F081039818B9FFF79AFA00
:103FE0000020F6E71FB96846FFF728FB0127FFF717
:103FF00091FAFFF7A7FCFFF77BFA94F94400401C05
:1040000010B9002084F8440094F94500401C10B910
:10401000002084F84500FFF77DFA03A9684600F008
:1040200047F840BB2046FEF79FFFF0B1206838B943
:10403000FFF75EFAA06800F0F5F98046FFF76AFA2C
:1040400004F124000399FFF70BFB2046FFF717F953
:1040500000F0D8FA00289BD14FF080501349086037
:10406000BFF34F8FBFF36F8F92E72046FFF707F93B
:1040700000F0C8FA8CE72046FFF701F900F0C2FA19
:104080002046FEF771FF002882D0B8F1000F0BD058
:10409000FFF72EFA2046FEF701FE06463146A068DD
:1040A000FFF73CFBFFF736FA002092E704ED00E053
:1040B00070B506460C46FFF71BFA13480268706895
:1040C000131A2068401C08B9002519E00F49306810
:1040D0000968884206D07068904203D80125002004
:1040E00020600DE02068984207D92068C01A20603F
:1040F0003046FFF7A3FA002502E0002020600125EA
:10410000FFF708FA284670BD880000209C000020B8
:104110002DE9FF4F85B0804689461746DDE912AB91
:10412000B800FFF7EBF8064676B15C20FFF7E6F83B
:1041300004462CB15C212046FCF76DF9266304E0AF
:104140003046FFF7F7F900E000248CB1002084F836
:104150005900CDE900ABCDE902403A464946404618
:10416000089BFEF729FE2046FEF76AFC012501E0C8
:104170004FF0FF35284609B0BDE8F08F2DE9F04F2C
:1041800085B00746884691469A46DDE90EB6109CF2
:10419000CCB1C6B125465C212846FCF73CF92E631C
:1041A000022085F85900002004A953464A46CDE96B
:1041B00000B1CDE9025041463846FEF7FDFD2846E4
:1041C000FEF73EFC01E000200490049805B0BDE835
:1041D000F08F00000549096809B9012005E004498C
:1041E000096809B9022000E0002070479000002013
:1041F000B0000020014908687047000088000020D6
:104200002DE9F04100275748006800287DD1564825
:104210000068451C544805608DB95448D0F80080AA
:1042200053480068514908605148C0F8008051481F
:104230000068401C4F490860FEF7AAFF00BF4E48C7
:104240000068854275D300BF48480068006808B917
:10425000012000E0002020B14FF0FF304649086007
:1042600066E042480068C068C4686668B54202D229
:10427000414806605CE06069D4E902128A60D4E9D2
:1042800002214A60211D42688A4201D1E1684160F1
:10429000002262610168491E0160A06A98B1A06AAB
:1042A000D4E907128A60D4E907214A6004F11801B1
:1042B00042688A4201D1216A41600022A2620168FB
:1042C000491E016000BF2D49E06A0968884202D991
:1042D0002A49E06A0860E16A01EB8101284A02EBA1
:1042E00081014868A0608268E260211D8268516097
:1042F0008160E16A01EB8101214A02EB8102626186
:10430000E16A01EB81011E4A00E022E052F821102F
:10431000491CE26A02EB8202194B43F82210194948
:10432000E06A0968C96A88428ED901278CE700E0F3
:1043300000BF14480068C06A00EB8000104951F8C3
:104340002000012800D901270F48006800B101278B
:1043500004E00E480068401C0C4908603846BDE87F
:10436000F0810000B00000208800002078000020CC
:104370007C0000209C000020A40000208C00002075
:104380003C2C0020740000209800002094000020A5
:1043900070B505462C460026002D3CD0206D401EF1
:1043A0002065E16CE06A884235D0206D98BB201D05
:1043B000FFF738F8E06CE062E06AC0F13800A06115
:1043C0001649E06A0968884202D91449E06A08601F
:1043D000E16A01EB8101124A02EB81014868A060A9
:1043E0008268E260211D826851608160E16A01EBB0
:1043F00081010B4A02EB81026261E16A01EB8101FA
:10440000074A52F82110491CE26A02EB8202044B6F
:1044100043F822100126304670BD00008C000020B9
:104420003C2C002070B505462C460026002D5CD0A3
:104430002F49E06A0968C96A88424FD2A06900F032
:10444000004028B92A480068C06AC0F13800A0615D
:10445000E16A01EB8101274A02EB81016069884230
:1044600001D1012000E0002088B3201DFEF7DAFF13
:104470001F480068C06AE0621F49E06A0968884214
:1044800002D91D49E06A0860E16A01EB8101194A1D
:1044900002EB81014868A0608268E260211D8268A9
:1044A00051608160E16A01EB8101124A02EB8102F5
:1044B0006261E16A01EB81010E4A52F82110491C48
:1044C000E26A02EB82020B4B43F8221004E0FFE7A2
:1044D00007480068C06AE062012606E00449E06C13
:1044E0000968C96A884200D20126304670BD0000C2
:1044F000740000203C2C00208C00002070B5034686
:10450000D868C168886AD1E90745A560D1E9075430
:10451000656001F118044568A54201D10C6A446048
:1045200000258D620468641E04603048006800281D
:104530003CD14869D1E90245A560D1E902546560E2
:104540000C1D4568A54201D1CC68446000254D6131
:104550000468641E0460264CC86A2468A04202D91C
:10456000234CC86A2060CC6A04EB8404214D05EB1F
:104570008404606888608568CD600C1D85686C6007
:104580008460CC6A04EB84041A4D05EB84054D610C
:10459000CC6A04EB8404174D55F82440641CCD6AA2
:1045A00005EB8505134E46F8254010E0124C606877
:1045B000C86185680D6201F1180485686C608460CB
:1045C0000D4D8D622C462468641C2C6000BF0B4C82
:1045D000C86A2468E46AA04204D901220120084C78
:1045E000206000E00022104670BD0000B0000020F6
:1045F0008C0000203C2C0020C430002074000020DF
:104600009800002070B500240026FEF771FF4A488C
:104610000068401E484908600846006800287DD1AF
:1046200046480068002879D05AE04548C068C46808
:10463000A06AD4E907128A60D4E907214A6004F12C
:10464000180142688A4201D1216A41600022A262B7
:104650000168491E01606069D4E902128A60D4E9E8
:1046600002214A60211D42688A4201D1E16841600D
:10467000002262610168491E01603249E06A0968EE
:10468000884202D92F49E06A0860E16A01EB8101A2
:104690002D4A02EB81014868A0608268E260211D1A
:1046A000826851608160E16A01EB8101264A02EB78
:1046B00081026261E16A01EB8101234A52F8211013
:1046C000491CE26A02EB82021F4B43F822101F4989
:1046D000E06A0968C96A884202D301201C4908605F
:1046E0001748006808B9012000E0002000289CD08D
:1046F0000CB1FEF74DFD1748056865B100BFFFF727
:104700007FFD10B10120124908606D1E002DF6D109
:104710000020104908600E48006800E008E038B149
:10472000012630070C490860BFF34F8FBFF36F8F2E
:10473000FEF7F0FE304670BDB0000020840000207F
:10474000C43000208C0000203C2C0020740000208D
:10475000980000209400002004ED00E010B586B021
:104760000024FEF7E1F910480068D0B10020059060
:10477000049003AA04A905A8FEF782FE2822DDE919
:1047800004100023CDE90021029008A10948039AF2
:10479000FFF7F4FC084908600846006800B10124EE
:1047A00000BF204606B010BDBC000020546D722032
:1047B0005376630065320008C000002010B5002960
:1047C0000AD00878002807D005487844FBF74AFE4D
:1047D000002801D0002010BD0248784410BD000020
:1047E0006E0100006601000010B500290AD00878AB
:1047F000002807D005487844FBF734FE002801D094
:10480000002010BD0248784410BD00005E01000089
:1048100056010000FCF7C5BAFCF7FABB0000000027
:1048200000000000303132333435363738394142F8
:104830004344454640305800303132333435363702
:1048400038396162636465664030780004000008AE
:1048500000000000000000020001000010303132B2
:104860003334353637383961626364656678700091
:104870003031323334353637383941424344454696
:104880005850000002400000000000A0000000009E
:1048900005400000000000C8000000000C400000BF
:1048A0000000409C00000000194000000020BCBE39
:1048B0000000000034400000BFC91B8E000000044F
:1048C000B5400000504BCFD06607E2CF010000009A
:1048D0006C4100003E8251AADFEEA73401000000C7
:1048E000D9420000DCB5A0E23A301F97FFFFFFFF7E
:1048F000B4450000FD25A0C8E9A3C14FFFFFFFFF9D
:10490000FF3F00000000008000000000FF3F0000AB
:104910000000008000000000644A00080000002041
:10492000C8000000280100082C4B0008C800002027
:1049300060370000440100081C0000004300000034
:10494000F8FFFFFF0C0000000E0000000F00000049
:104950002E0000001001000043000000F8FFFFFFE0
:104960000040404040404040404041414141414082
:104970004040404040404040404040404040404037
:1049800040050202020202020202020202020202C6
:1049900002202020202020202020200202020202CB
:1049A0000202909090909090101010101010101023
:1049B000101010101010101010101010020202022F
:1049C0000202888888888888080808080808080873
:1049D000080808080808080808080808020202026F
:1049E0004000000000000000000000000000000087
:1049F00000000000000000000000000000000000B7
:104A000000000000000000000000000000000000A6
:104A10000000000000000000000000000000000096
:104A20000000000000000000000000000000000086
:104A30000000000000000000000000000000000076
:104A40000000000000000000000000000000000066
:104A50000000000000000000000000000000000056
:104A60000000000000000000000000000000000046
:104A700000000000000000000038014000000000BD
:104A80000000000000000000000000000000000026
:104A900000000000010203040102030406070809E4
:104AA0000204060800A24A04000000000000000002
:104AB00001020304060708090000000000000000CE
:104AC00000000000000000000000000000000000E6
:104AD00000000000AAAAAAAA00000000000000002E
:104AE00000000000000000000000000000000000C6
:104AF00000000000000000000000000000000000B6
:104B000000000000000000000000000000000000A5
:104B1000370000000000000000000000000000005E
:0C4B200000000000000000000000000089
:04000005080000ED02
:00000001FF
